{
  "abi": [
    {
      "inputs": [
        {
          "internalType": "address",
          "name": "owner_",
          "type": "address"
        },
        {
          "internalType": "contract IFrensStorage",
          "name": "frensStorage_",
          "type": "address"
        }
      ],
      "stateMutability": "nonpayable",
      "type": "constructor"
    },
    {
      "anonymous": false,
      "inputs": [
        {
          "indexed": false,
          "internalType": "uint256",
          "name": "amount",
          "type": "uint256"
        },
        {
          "indexed": false,
          "internalType": "address",
          "name": "depositer",
          "type": "address"
        },
        {
          "indexed": false,
          "internalType": "uint256",
          "name": "id",
          "type": "uint256"
        }
      ],
      "name": "DepositToPool",
      "type": "event"
    },
    {
      "anonymous": false,
      "inputs": [
        {
          "indexed": true,
          "internalType": "address",
          "name": "previousOwner",
          "type": "address"
        },
        {
          "indexed": true,
          "internalType": "address",
          "name": "newOwner",
          "type": "address"
        }
      ],
      "name": "OwnershipTransferred",
      "type": "event"
    },
    {
      "anonymous": false,
      "inputs": [
        {
          "indexed": false,
          "internalType": "address",
          "name": "depositContractAddress",
          "type": "address"
        },
        {
          "indexed": false,
          "internalType": "address",
          "name": "caller",
          "type": "address"
        }
      ],
      "name": "Stake",
      "type": "event"
    },
    {
      "stateMutability": "payable",
      "type": "fallback"
    },
    {
      "inputs": [
        {
          "internalType": "uint256",
          "name": "_id",
          "type": "uint256"
        }
      ],
      "name": "addToDeposit",
      "outputs": [],
      "stateMutability": "payable",
      "type": "function"
    },
    {
      "inputs": [],
      "name": "artForPool",
      "outputs": [
        {
          "internalType": "contract IFrensArt",
          "name": "",
          "type": "address"
        }
      ],
      "stateMutability": "view",
      "type": "function"
    },
    {
      "inputs": [
        {
          "internalType": "uint256",
          "name": "_id",
          "type": "uint256"
        }
      ],
      "name": "claim",
      "outputs": [],
      "stateMutability": "nonpayable",
      "type": "function"
    },
    {
      "inputs": [
        {
          "internalType": "uint256",
          "name": "",
          "type": "uint256"
        }
      ],
      "name": "depositForId",
      "outputs": [
        {
          "internalType": "uint256",
          "name": "",
          "type": "uint256"
        }
      ],
      "stateMutability": "view",
      "type": "function"
    },
    {
      "inputs": [],
      "name": "depositToPool",
      "outputs": [],
      "stateMutability": "payable",
      "type": "function"
    },
    {
      "inputs": [],
      "name": "deposit_data_root",
      "outputs": [
        {
          "internalType": "bytes32",
          "name": "",
          "type": "bytes32"
        }
      ],
      "stateMutability": "view",
      "type": "function"
    },
    {
      "inputs": [
        {
          "internalType": "uint256",
          "name": "",
          "type": "uint256"
        }
      ],
      "name": "frenPastClaim",
      "outputs": [
        {
          "internalType": "uint256",
          "name": "",
          "type": "uint256"
        }
      ],
      "stateMutability": "view",
      "type": "function"
    },
    {
      "inputs": [],
      "name": "frensPoolShare",
      "outputs": [
        {
          "internalType": "contract IFrensPoolShare",
          "name": "",
          "type": "address"
        }
      ],
      "stateMutability": "view",
      "type": "function"
    },
    {
      "inputs": [],
      "name": "frensStorage",
      "outputs": [
        {
          "internalType": "contract IFrensStorage",
          "name": "",
          "type": "address"
        }
      ],
      "stateMutability": "view",
      "type": "function"
    },
    {
      "inputs": [
        {
          "internalType": "uint256",
          "name": "_id",
          "type": "uint256"
        }
      ],
      "name": "getDistributableShare",
      "outputs": [
        {
          "internalType": "uint256",
          "name": "",
          "type": "uint256"
        }
      ],
      "stateMutability": "view",
      "type": "function"
    },
    {
      "inputs": [],
      "name": "getIdsInThisPool",
      "outputs": [
        {
          "internalType": "uint256[]",
          "name": "",
          "type": "uint256[]"
        }
      ],
      "stateMutability": "view",
      "type": "function"
    },
    {
      "inputs": [
        {
          "internalType": "uint256",
          "name": "_id",
          "type": "uint256"
        }
      ],
      "name": "getShare",
      "outputs": [
        {
          "internalType": "uint256",
          "name": "",
          "type": "uint256"
        }
      ],
      "stateMutability": "view",
      "type": "function"
    },
    {
      "inputs": [],
      "name": "getState",
      "outputs": [
        {
          "internalType": "string",
          "name": "",
          "type": "string"
        }
      ],
      "stateMutability": "view",
      "type": "function"
    },
    {
      "inputs": [
        {
          "internalType": "uint256",
          "name": "",
          "type": "uint256"
        }
      ],
      "name": "idsInPool",
      "outputs": [
        {
          "internalType": "uint256",
          "name": "",
          "type": "uint256"
        }
      ],
      "stateMutability": "view",
      "type": "function"
    },
    {
      "inputs": [
        {
          "internalType": "uint256",
          "name": "",
          "type": "uint256"
        }
      ],
      "name": "locked",
      "outputs": [
        {
          "internalType": "bool",
          "name": "",
          "type": "bool"
        }
      ],
      "stateMutability": "view",
      "type": "function"
    },
    {
      "inputs": [],
      "name": "owner",
      "outputs": [
        {
          "internalType": "address",
          "name": "",
          "type": "address"
        }
      ],
      "stateMutability": "view",
      "type": "function"
    },
    {
      "inputs": [],
      "name": "pubKey",
      "outputs": [
        {
          "internalType": "bytes",
          "name": "",
          "type": "bytes"
        }
      ],
      "stateMutability": "view",
      "type": "function"
    },
    {
      "inputs": [
        {
          "internalType": "uint256",
          "name": "",
          "type": "uint256"
        }
      ],
      "name": "rageQuitInfo",
      "outputs": [
        {
          "internalType": "uint256",
          "name": "price",
          "type": "uint256"
        },
        {
          "internalType": "uint256",
          "name": "time",
          "type": "uint256"
        },
        {
          "internalType": "bool",
          "name": "rageQuitting",
          "type": "bool"
        }
      ],
      "stateMutability": "view",
      "type": "function"
    },
    {
      "inputs": [],
      "name": "renounceOwnership",
      "outputs": [],
      "stateMutability": "nonpayable",
      "type": "function"
    },
    {
      "inputs": [
        {
          "internalType": "contract IFrensArt",
          "name": "newArtContract",
          "type": "address"
        }
      ],
      "name": "setArt",
      "outputs": [],
      "stateMutability": "nonpayable",
      "type": "function"
    },
    {
      "inputs": [
        {
          "internalType": "bytes",
          "name": "_pubKey",
          "type": "bytes"
        },
        {
          "internalType": "bytes",
          "name": "_withdrawal_credentials",
          "type": "bytes"
        },
        {
          "internalType": "bytes",
          "name": "_signature",
          "type": "bytes"
        },
        {
          "internalType": "bytes32",
          "name": "_deposit_data_root",
          "type": "bytes32"
        }
      ],
      "name": "setPubKey",
      "outputs": [],
      "stateMutability": "nonpayable",
      "type": "function"
    },
    {
      "inputs": [],
      "name": "signature",
      "outputs": [
        {
          "internalType": "bytes",
          "name": "",
          "type": "bytes"
        }
      ],
      "stateMutability": "view",
      "type": "function"
    },
    {
      "inputs": [],
      "name": "stake",
      "outputs": [],
      "stateMutability": "nonpayable",
      "type": "function"
    },
    {
      "inputs": [],
      "name": "totalClaims",
      "outputs": [
        {
          "internalType": "uint256",
          "name": "",
          "type": "uint256"
        }
      ],
      "stateMutability": "view",
      "type": "function"
    },
    {
      "inputs": [],
      "name": "totalDeposits",
      "outputs": [
        {
          "internalType": "uint256",
          "name": "",
          "type": "uint256"
        }
      ],
      "stateMutability": "view",
      "type": "function"
    },
    {
      "inputs": [],
      "name": "transferLocked",
      "outputs": [
        {
          "internalType": "bool",
          "name": "",
          "type": "bool"
        }
      ],
      "stateMutability": "view",
      "type": "function"
    },
    {
      "inputs": [
        {
          "internalType": "address",
          "name": "newOwner",
          "type": "address"
        }
      ],
      "name": "transferOwnership",
      "outputs": [],
      "stateMutability": "nonpayable",
      "type": "function"
    },
    {
      "inputs": [
        {
          "internalType": "uint256",
          "name": "_id",
          "type": "uint256"
        },
        {
          "internalType": "uint256",
          "name": "_amount",
          "type": "uint256"
        }
      ],
      "name": "withdraw",
      "outputs": [],
      "stateMutability": "nonpayable",
      "type": "function"
    },
    {
      "inputs": [],
      "name": "withdrawal_credentials",
      "outputs": [
        {
          "internalType": "bytes",
          "name": "",
          "type": "bytes"
        }
      ],
      "stateMutability": "view",
      "type": "function"
    },
    {
      "stateMutability": "payable",
      "type": "receive"
    }
  ],
  "bytecode": {
    "object": "0x60806040818152346200021e5780826200270d803803809162000023828562000255565b8339810103126200021e57620000398262000279565b6020928301516001600160a01b0380821694918590036200021e576200005f336200028e565b60018060a01b0319918583600f541617600f5584518181016f636f6e74726163742e6164647265737360801b9182825267119c995b9cd05c9d60c21b603082015260188152620000af8162000223565b5190209086516321f8a72160e01b92838252600482015283816024818c5afa9081156200021357849392918691600091620001ca575b5090602492911687600e541617600e5588518481019182526d4672656e73506f6f6c536861726560901b6030820152601e8152620001238162000223565b519020918851998a938492835260048301525afa908115620001bf576000916200017b575b506200016d9495501690600d541617600d5560ff60a01b19600054166000556200028e565b516124379081620002d68239f35b86813d8311620001b7575b62000192818362000255565b81010312620001b45750620001ac6200016d949562000279565b859462000148565b80fd5b503d62000186565b85513d6000823e3d90fd5b85819495969293503d83116200020b575b620001e7818362000255565b81010312620001b45750839291856200020260249362000279565b909192620000e5565b503d620001db565b88513d6000823e3d90fd5b600080fd5b604081019081106001600160401b038211176200023f57604052565b634e487b7160e01b600052604160045260246000fd5b601f909101601f19168101906001600160401b038211908210176200023f57604052565b51906001600160a01b03821682036200021e57565b600080546001600160a01b039283166001600160a01b03198216811783559216907f8be0079c531659141344cd1fd0a4f28419497f9722a3daafe3b4186f6b6457e09080a356fe6080604081815260048036101561001e575b505050361561001c57005b005b600092833560e01c90816312686aae14611d55575080631865c57d14611d245780632cf2cd4814611cfd5780632daad61d14611cd657806330dbf88714611cad578063379607f5146117f85780633a4b66f1146113a757806341c6138314611388578063441a3e70146111bf57806345b58fe41461110c57806351ff484714611073578063591167c71461104a578063678e300a1461102a578063715018a614610fd05780637d88209714610fb15780638620891c14610e2b578063888e9cf814610ddb5780638ae578fd14610db25780638da5cb5b14610d8a578063ac2a5dfd14610cf1578063b45a3c0e14610cc5578063cfb5a5f814610c1c578063e2d9ae3e14610bfd578063e4a5027614610b22578063e6b1a3ae146109ea578063e920eec0146104df578063f2fde38b1461040b578063f9faa104146101ac5763fc03bad20361001157346101a85760203660031901126101a857606092818392358252602052209081549160ff60026001830154920154169082519384526020840152151590820152f35b8280fd5b50826003193601126101a85734156103d45760ff835460a01c16818110156103c15760016101da9114611e8e565b6101fa6801bc16d674ec8000006101f360055434611ed3565b1115611ef6565b600d5482516318160ddd60e01b81529260209290916001600160a01b0390849086908490829085165afa9485156103b7578695610383575b5084865260018452348387205561024b34600554611ed3565b6005556007546801000000000000000081101561037057600181018060075581101561035b57908587939260076000527fa66cc928b5edb82af9bd49922954155ab7b0942694bea4ce44661d9a8736c68801558583526002855260018484205560ff60085416600386528484209060ff801983541691151516179055600d541690813b156101a857829160248392865194859384926335313c2160e11b845233908401525af1801561035157610335575b507fd91527a40417d48f76ba016aaa9157e2ddaca6cb5b660432901659cb075058fc60608486858051923484523390840152820152a180f35b61034190939293611df8565b61034d579083386102fc565b8380fd5b83513d84823e3d90fd5b603283634e487b7160e01b6000525260246000fd5b634e487b7160e01b875260418352602487fd5b9094508381813d83116103b0575b61039b8183611e3e565b810103126103ab57519338610232565b600080fd5b503d610391565b83513d88823e3d90fd5b634e487b7160e01b845260218252602484fd5b6020606492519162461bcd60e51b8352820152601260248201527136bab9ba103232b837b9b4ba1032ba3432b960711b6044820152fd5b5090346101a85760203660031901126101a8576001600160a01b038235818116939192908490036104db5761043e612349565b8315610489575050600054826bffffffffffffffffffffffff60a01b821617600055167f8be0079c531659141344cd1fd0a4f28419497f9722a3daafe3b4186f6b6457e0600080a380f35b906020608492519162461bcd60e51b8352820152602660248201527f4f776e61626c653a206e6577206f776e657220697320746865207a65726f206160448201526564647265737360d01b6064820152fd5b8480fd5b509190346109e65760803660031901126109e65767ffffffffffffffff90833582811161034d576105139036908601611e60565b91909460249081358581116109e25761052f9036908301611e60565b6044969196358281116109de576105499036908501611e60565b979096610554612349565b600160f81b3001968730116109cc57805160209889820190815289825261057a82611e22565b61058386612011565b61058f84519182611e3e565b8681528a81019036888801116109c8578e888884378c89830101525190209151902003610987575060ff8a5460a01c1685811015610975576105d19015611fd7565b83811161096357806105e4600954611dbe565b9b601f9c8d8111610909575b508b908d8311600114610896578c9261088b575b50508160011b916000199060031b1c1916176009555b82821161087957819061062e600a54611dbe565b8b811161081f575b5089908b83116001146107ac578a926107a1575b50508160011b916000199060031b1c191617600a555b8511610790575050610673600b54611dbe565b858111610742575b50839483116001146106d057509282938293926106c5575b50508160011b916000199060031b1c191617600b555b606435600c556000805460ff60a01b1916600160a01b17905580f35b013590503880610693565b600b8452601f198316946000805160206123e2833981519152929185905b87821061072a575050836001959610610710575b505050811b01600b556106a9565b0135600019600384901b60f8161c19169055388080610702565b806001849682949587013581550195019201906106ee565b600b85526000805160206123e28339815191528680860160051c820192848710610787575b0160051c01905b81811061077b575061067b565b6000815560010161076e565b92508192610767565b634e487b7160e01b86526041905284fd5b01359050388061064a565b600a8b526000805160206123a2833981519152925090601f1984168b5b898282106108095750509084600195949392106107ef575b505050811b01600a55610660565b0135600019600384901b60f8161c191690553880806107e1565b60018496829395870135815501950192016107c9565b909150600a8a526000805160206123a28339815191528b80850160051c820192898610610870575b9085949392910160051c01905b8181106108615750610636565b60008155849350600101610854565b92508192610847565b634e487b7160e01b8952604184528489fd5b013590503880610604565b60098d526000805160206123c2833981519152925090601f1984168d5b8b8282106108f35750509084600195949392106108d9575b505050811b0160095561061a565b0135600019600384901b60f8161c191690553880806108cb565b60018496829395870135815501950192016108b3565b90915060098c526000805160206123c28339815191528d80850160051c8201928b861061095a575b9085949392910160051c01905b81811061094b57506105f0565b6000815584935060010161093e565b92508192610931565b634e487b7160e01b8a5260418552858afd5b634e487b7160e01b8b5260218652868bfd5b5162461bcd60e51b8152808601889052601e818801527f7769746864726177616c2063726564656e7469616c206d69736d6174636800006044820152606490fd5b8e80fd5b634e487b7160e01b8b5260118652868bfd5b8880fd5b8680fd5b5080fd5b50346101a85760208060031936011261034d5781356001600160a01b03811693908490036104db57610a1a612349565b805163516b636d60e11b81526001848201528581602481885afa908115610b18578691610a9f575b505115610a67575050506bffffffffffffffffffffffff60a01b600e541617600e5580f35b5162461bcd60e51b81529182015260146024820152731a5b9d985b1a5908185c9d0818dbdb9d1c9858dd60621b604482015260649150fd5b90503d8087833e610ab08183611e3e565b81019083818303126109e25780519067ffffffffffffffff8211610b14570181601f820112156109e2578051610ae581612011565b92610af285519485611e3e565b818452858284010111610b1457610b0e91858085019101611d76565b38610a42565b8780fd5b82513d88823e3d90fd5b828434610bfa5780600319360112610bfa57508051600091600a54610b4681611dbe565b80845290600190818116908115610bd25750600114610b87575b5050610b7182610b83940383611e3e565b51918291602083526020830190611d99565b0390f35b600a600090815294506000805160206123a28339815191525b828610610bba5750505091810160200191610b7182610b60565b80546020878701810191909152909501948101610ba0565b610b8396508592506020915092610b719360ff191682840152151560051b8201019450610b60565b80fd5b5050346109e657816003193601126109e657602090600c549051908152f35b50346101a85760203660031901126101a857600d548251631dc82a7560e01b81528235928101839052906001600160a01b03906020908390602490829085165afa918215610cbb5791610c8091610c85949360209792610c8c575b50163014611f73565b61209a565b9051908152f35b610cad919250873d8111610cb4575b610ca58183611e3e565b810190611f54565b9038610c77565b503d610c9b565b84513d87823e3d90fd5b50346101a85760203660031901126101a8578160209360ff923581526003855220541690519015158152f35b828434610bfa5780600319360112610bfa57508051600091600954610d1581611dbe565b80845290600190818116908115610bd25750600114610d3f575050610b7182610b83940383611e3e565b6009600090815294506000805160206123c28339815191525b828610610d725750505091810160200191610b7182610b60565b80546020878701810191909152909501948101610d58565b5050346109e657816003193601126109e657905490516001600160a01b039091168152602090f35b5050346109e657816003193601126109e657600e5490516001600160a01b039091168152602090f35b50346101a85760203660031901126101a857356007548110156101a8576020925060076000527fa66cc928b5edb82af9bd49922954155ab7b0942694bea4ce44661d9a8736c68801549051908152f35b506020908160031936011261034d5780359060ff855460a01c1681811015610f9e576001610e599114611e8e565b610e726801bc16d674ec8000006101f360055434611ed3565b600d548451631dc82a7560e01b8152828101849052906001600160a01b039081168583602481845afa928315610f94576024938793610eba928b92610f7c5750163014611f73565b865192838092634f558e7960e01b825287878301525afa908115610f72578691610f45575b5015610f0e5750906001918452528120610efa348254611ed3565b9055610f0834600554611ed3565b60055580f35b835162461bcd60e51b815290810183905260116024820152701a5908191bd95cc81b9bdd08195e1a5cdd607a1b6044820152606490fd5b610f659150843d8611610f6b575b610f5d8183611e3e565b810190611fbf565b38610edf565b503d610f53565b85513d88823e3d90fd5b610cad919250853d8711610cb457610ca58183611e3e565b87513d8a823e3d90fd5b634e487b7160e01b865260218252602486fd5b5050346109e657816003193601126109e6576020906005549051908152f35b8334610bfa5780600319360112610bfa57610fe9612349565b600080546001600160a01b0319811682556001600160a01b03167f8be0079c531659141344cd1fd0a4f28419497f9722a3daafe3b4186f6b6457e08280a380f35b509134610bfa576020366003190112610bfa5750610c856020923561210d565b5050346109e657816003193601126109e657600d5490516001600160a01b039091168152602090f35b828434610bfa5780600319360112610bfa57508051600091600b5461109781611dbe565b80845290600190818116908115610bd257506001146110c1575050610b7182610b83940383611e3e565b600b600090815294506000805160206123e28339815191525b8286106110f45750505091810160200191610b7182610b60565b805460208787018101919091529095019481016110da565b828434610bfa5780600319360112610bfa579080519182906007549182855260208095018093600784527fa66cc928b5edb82af9bd49922954155ab7b0942694bea4ce44661d9a8736c68890845b8181106111ab5750505081611170910382611e3e565b83519485948186019282875251809352850193925b82811061119457505050500390f35b835185528695509381019392810192600101611185565b82548452928801926001928301920161115a565b5090346101a857806003193601126101a8578135602480359360ff865460a01c16818110156113765760016111f49114611e8e565b600d5484516331a9108f60e11b8082528382018690526020949290916001600160a01b0391869082908690829086165afa90811561136c579082918b9161134f575b5016330361131d578589526001855287878a2054106112e457918493918695938a989789526001855287892061126d8b825461202d565b905561127b8a60055461202d565b600555600d54168751968794859384528301525afa9283156112db57506112bb9484938493849384926112be575b50505af16112b561203a565b5061206a565b80f35b6112d49250803d10610cb457610ca58183611e3e565b38806112a9565b513d85823e3d90fd5b865162461bcd60e51b8152808501869052601481850152731b9bdd08195b9bdd59da0819195c1bdcda5d195960621b6044820152606490fd5b865162461bcd60e51b8152808501869052600d818501526c3737ba103a34329037bbb732b960991b6044820152606490fd5b6113669150873d8911610cb457610ca58183611e3e565b38611236565b88513d8c823e3d90fd5b50634e487b7160e01b86526021905284fd5b5050346109e657816003193601126109e6576020906006549051908152f35b509190346109e65760031982813601126101a8576113c3612349565b6801bc16d674ec800000938447106117c457846005540361178b5783549460ff8660a01c169282841015611778576113fe6001809514611fd7565b600f5485517f65787465726e616c2e636f6e74726163742e616464726573730000000000000060208083019182526e11195c1bdcda5d10dbdb9d1c9858dd608a1b603984015260288352996001600160a01b03939091606084019185169067ffffffffffffffff831185841017611765576024838e938193828f52885190206321f8a72160e01b835260648901525afa92831561175b578a93611726575b505060ff60a01b1916600160a11b178855600c54911694853b15610b145791879391896080969489519788966304512a2360e31b885287015286936009546114e381611dbe565b908160848a0152838116908160001461170857506001146116c0575b5086850381016024880152600a54889561151882611dbe565b808252918481169081156116a5575060011461165e575b50508685030160448701528693600b549161154983611dbe565b9283835288828216918260001461163c5750506001146115f1575b505050508391829160648301520391865af180156115e4576115b3575b507f72b356fd889b9abd3530accd2c9f4aecbce67d70757181f9f862ac91464ce192929382519182523390820152a180f35b926115de7f72b356fd889b9abd3530accd2c9f4aecbce67d70757181f9f862ac91464ce19294611df8565b92611581565b50505051903d90823e3d90fd5b9293945090600b88526000805160206123e28339815191529288935b8285106116235750505001019089848038611564565b80548486018701528d99508a985093850193810161160d565b60ff19168487015293151560051b90920190930194508c925081905038611564565b600a8a529195508891906000805160206123a28339815191525b81841061168c57505001820193388061152f565b80548484018701528e9a508b9950928501928401611678565b60ff1916828701525090151560051b0183019450388061152f565b6009895290945087906000805160206123c28339815191525b8183106116ee575050860160a40193386114ff565b80548b840160a401528d99508a98509184019183016116d9565b905060a492965060ff191682890152151560051b87010193386114ff565b61174b9293506060908c908d3d10611753575b6117438285611e3e565b010190611f54565b90388061149c565b3d9150611739565b89513d8c823e3d90fd5b634e487b7160e01b8c526041895260248cfd5b634e487b7160e01b865260218352602486fd5b606490602084519162461bcd60e51b835282015260136024820152726e6f7420656e6f756768206465706f7369747360681b6044820152fd5b606490602084519162461bcd60e51b8352820152600e60248201526d0dcdee840cadcdeeaced040cae8d60931b6044820152fd5b509134610bfa57602091826003193601126109e6578335938360018060a01b039586600d5416845196878092631dc82a7560e01b825284878301526024998a915afa908115610f725790611857918791611c90575b5088163014611f73565b60ff855460a01c1683811015611c7e5760018114611c3c576064471115611bec57600314611be05786600f541696828551818101906f636f6e74726163742e6164647265737360801b82526a4672656e734f7261636c6560a81b6030820152601b81526118c381611e22565b519020888751809b81936321f8a72160e01b8352898301525afa978815610f7257818888999a86938a91611bc3575b50885163404df7b160e11b81523089820152998a938492165af1958615611bb9578796611b9a575b508580611b6f575b611b59575b6119308261209a565b9582885260028452858820611946888254611ed3565b905561195487600654611ed3565b60065581600f541690865185810190731c1c9bdd1bd8dbdb0b9999594b9c195c98d95b9d60621b82526014815261198a81611e22565b5190209087519163bd02d0f560e01b83528783015285828c81865afa91821561136c578a92611b26575b508115159081611b1d575b50611a0e575b50509086978392600d989798541694865195869384926331a9108f60e11b84528301525afa9283156112db57506112bb9484938493849384926112be5750505af16112b561203a565b8487989293985181810190751c1c9bdd1bd8dbdb0b9999594b9c9958da5c1a595b9d60521b825260168152611a4281611e22565b5190208b8951809681936321f8a72160e01b83528b8301525afa928315611b13578993611aeb575b50611a7782606492612087565b049160018311611aa0575b5097611a94849392899a99989961202d565b969791928199506119c5565b600019830190838211611ad95792899a92611acb8b8080809d9e611a94978c9b9a5af16112b561203a565b929a50929350979697611a82565b634e487b7160e01b8a52601187528a8afd5b606491935082611b0a611a7792883d8a11610cb457610ca58183611e3e565b94925050611a6a565b87513d8b823e3d90fd5b905015386119bf565b9091508581813d8311611b52575b611b3e8183611e3e565b81010312611b4e575190386119b4565b8980fd5b503d611b34565b865460ff60a01b1916600360a01b178755611927565b5060ff875460a01c1684811015611b8857600214611922565b634e487b7160e01b8852602185528888fd5b611bb2919650833d8511610f6b57610f5d8183611e3e565b943861191a565b85513d89823e3d90fd5b611bda9150843d8611610cb457610ca58183611e3e565b386118f2565b60019694959694611927565b845162461bcd60e51b81528085018490526025818901527f6d7573742062652067726561746572207468616e203130302077656920746f20604482015264636c61696d60d81b6064820152608490fd5b845162461bcd60e51b8152808501849052601c818901527f757365207769746864726177207768656e206e6f74207374616b6564000000006044820152606490fd5b634e487b7160e01b8652602184528686fd5b611ca79150843d8611610cb457610ca58183611e3e565b3861184d565b5050346109e657816003193601126109e657600f5490516001600160a01b039091168152602090f35b50346101a85760203660031901126101a85760209282913581526001845220549051908152f35b50346101a85760203660031901126101a85760209282913581526002845220549051908152f35b5050346109e657816003193601126109e657610b8390611d4261222d565b9051918291602083526020830190611d99565b8490346109e657816003193601126109e65760209060ff6008541615158152f35b60005b838110611d895750506000910152565b8181015183820152602001611d79565b90602091611db281518092818552858086019101611d76565b601f01601f1916010190565b90600182811c92168015611dee575b6020831014611dd857565b634e487b7160e01b600052602260045260246000fd5b91607f1691611dcd565b67ffffffffffffffff8111611e0c57604052565b634e487b7160e01b600052604160045260246000fd5b6040810190811067ffffffffffffffff821117611e0c57604052565b90601f8019910116810190811067ffffffffffffffff821117611e0c57604052565b9181601f840112156103ab5782359167ffffffffffffffff83116103ab57602083818601950101116103ab57565b15611e9557565b60405162461bcd60e51b81526020600482015260166024820152756e6f7420616363657074696e67206465706f7369747360501b6044820152606490fd5b91908201809211611ee057565b634e487b7160e01b600052601160045260246000fd5b15611efd57565b60405162461bcd60e51b815260206004820152602960248201527f746f74616c206465706f736974732063616e6e6f74206265206d6f72652074686044820152680c2dc406664408ae8d60bb1b6064820152608490fd5b908160209103126103ab57516001600160a01b03811681036103ab5790565b15611f7a57565b60405162461bcd60e51b815260206004820152601960248201527f77726f6e67207374616b696e6720706f6f6c20666f72206964000000000000006044820152606490fd5b908160209103126103ab575180151581036103ab5790565b15611fde57565b60405162461bcd60e51b815260206004820152600b60248201526a77726f6e6720737461746560a81b6044820152606490fd5b67ffffffffffffffff8111611e0c57601f01601f191660200190565b91908203918211611ee057565b3d15612065573d9061204b82612011565b916120596040519384611e3e565b82523d6000602084013e565b606090565b1561207157565b634e487b7160e01b600052600160045260246000fd5b81810292918115918404141715611ee057565b47156121075760009081526001602052604081205460026020526120d06040832054916120ca4760065490611ed3565b90612087565b6005549081156120f3570480156120ee576120eb925061202d565b90565b505090565b634e487b7160e01b84526012600452602484fd5b50600090565b600060ff815460a01c16916004831015612219576001830361212f5750905090565b6121389061209a565b9160018060a01b03600f5416602060405181810190731c1c9bdd1bd8dbdb0b9999594b9c195c98d95b9d60621b82526014815261217481611e22565b51902060246040518094819363bd02d0f560e01b835260048301525afa92831561220d5780936121d7575b505081151590816121cb575b506121b4575090565b9060646121c4826120eb94612087565b049061202d565b600391501415386121ab565b909192506020823d8211612205575b816121f360209383611e3e565b81010312610bfa57505190388061219f565b3d91506121e6565b604051903d90823e3d90fd5b634e487b7160e01b82526021600452602482fd5b60ff60005460a01c1660048110156123335780156122f957600281146122d657600181146122a7576003146122855760405161226881611e22565b600d81526c7374617465206661696c75726560981b602082015290565b60405161229181611e22565b6006815265195e1a5d195960d21b602082015290565b506040516122b481611e22565b6012815271616363657074696e67206465706f7369747360701b602082015290565b506040516122e381611e22565b60068152651cdd185ad95960d21b602082015290565b5060405161230681611e22565b601781527f6177616974696e672076616c696461746f7220696e666f000000000000000000602082015290565b634e487b7160e01b600052602160045260246000fd5b6000546001600160a01b0316330361235d57565b606460405162461bcd60e51b815260206004820152602060248201527f4f776e61626c653a2063616c6c6572206973206e6f7420746865206f776e65726044820152fdfec65a7bb8d6351c1cf70c95a316cc6a92839c986682d98bc35f958f4883f9d2a86e1540171b6c0c960b71a7020d9f60077f6af931a8bbf590da0223dacf75c7af0175b7a638427703f0dbe7bb9bbf987a2551717b34e79f33b5b1008d1fa01db9a26469706673582212200b5f85dcf718df45a1e257bc299600c103bae2815131985fc4992fa9c2f5820c64736f6c63430008110033",
    "linkReferences": {}
  },
  "methodIdentifiers": {
    "addToDeposit(uint256)": "8620891c",
    "artForPool()": "8ae578fd",
    "claim(uint256)": "379607f5",
    "depositForId(uint256)": "2daad61d",
    "depositToPool()": "f9faa104",
    "deposit_data_root()": "e2d9ae3e",
    "frenPastClaim(uint256)": "2cf2cd48",
    "frensPoolShare()": "591167c7",
    "frensStorage()": "30dbf887",
    "getDistributableShare(uint256)": "678e300a",
    "getIdsInThisPool()": "45b58fe4",
    "getShare(uint256)": "cfb5a5f8",
    "getState()": "1865c57d",
    "idsInPool(uint256)": "888e9cf8",
    "locked(uint256)": "b45a3c0e",
    "owner()": "8da5cb5b",
    "pubKey()": "ac2a5dfd",
    "rageQuitInfo(uint256)": "fc03bad2",
    "renounceOwnership()": "715018a6",
    "setArt(address)": "e6b1a3ae",
    "setPubKey(bytes,bytes,bytes,bytes32)": "e920eec0",
    "signature()": "51ff4847",
    "stake()": "3a4b66f1",
    "totalClaims()": "41c61383",
    "totalDeposits()": "7d882097",
    "transferLocked()": "12686aae",
    "transferOwnership(address)": "f2fde38b",
    "withdraw(uint256,uint256)": "441a3e70",
    "withdrawal_credentials()": "e4a50276"
  },
  "id": 6
}