{"abi":[{"type":"fallback","stateMutability":"payable"},{"type":"receive","stateMutability":"payable"},{"type":"function","name":"addToDeposit","inputs":[{"name":"_id","type":"uint256","internalType":"uint256"}],"outputs":[],"stateMutability":"payable"},{"type":"function","name":"artForPool","inputs":[],"outputs":[{"name":"","type":"address","internalType":"contract IFrensArt"}],"stateMutability":"view"},{"type":"function","name":"callSSVNetwork","inputs":[{"name":"data","type":"bytes","internalType":"bytes"}],"outputs":[],"stateMutability":"nonpayable"},{"type":"function","name":"claim","inputs":[{"name":"_id","type":"uint256","internalType":"uint256"}],"outputs":[],"stateMutability":"nonpayable"},{"type":"function","name":"currentState","inputs":[],"outputs":[{"name":"","type":"uint8","internalType":"enum StakingPool.PoolState"}],"stateMutability":"view"},{"type":"function","name":"depositContract","inputs":[],"outputs":[{"name":"","type":"address","internalType":"contract IDepositContract"}],"stateMutability":"view"},{"type":"function","name":"depositForId","inputs":[{"name":"","type":"uint256","internalType":"uint256"}],"outputs":[{"name":"","type":"uint256","internalType":"uint256"}],"stateMutability":"view"},{"type":"function","name":"depositToPool","inputs":[],"outputs":[],"stateMutability":"payable"},{"type":"function","name":"deposit_data_root","inputs":[],"outputs":[{"name":"","type":"bytes32","internalType":"bytes32"}],"stateMutability":"view"},{"type":"function","name":"feePercent","inputs":[],"outputs":[{"name":"","type":"uint256","internalType":"uint256"}],"stateMutability":"view"},{"type":"function","name":"feeRecipient","inputs":[],"outputs":[{"name":"","type":"address","internalType":"address"}],"stateMutability":"view"},{"type":"function","name":"frenPastClaim","inputs":[{"name":"","type":"uint256","internalType":"uint256"}],"outputs":[{"name":"","type":"uint256","internalType":"uint256"}],"stateMutability":"view"},{"type":"function","name":"frensPoolShare","inputs":[],"outputs":[{"name":"","type":"address","internalType":"contract IFrensPoolShare"}],"stateMutability":"view"},{"type":"function","name":"frensStorage","inputs":[],"outputs":[{"name":"","type":"address","internalType":"contract IFrensStorage"}],"stateMutability":"view"},{"type":"function","name":"getDistributableShare","inputs":[{"name":"_id","type":"uint256","internalType":"uint256"}],"outputs":[{"name":"","type":"uint256","internalType":"uint256"}],"stateMutability":"view"},{"type":"function","name":"getIdsInThisPool","inputs":[],"outputs":[{"name":"","type":"uint256[]","internalType":"uint256[]"}],"stateMutability":"view"},{"type":"function","name":"getShare","inputs":[{"name":"_id","type":"uint256","internalType":"uint256"}],"outputs":[{"name":"","type":"uint256","internalType":"uint256"}],"stateMutability":"view"},{"type":"function","name":"getState","inputs":[],"outputs":[{"name":"","type":"string","internalType":"string"}],"stateMutability":"view"},{"type":"function","name":"idsInPool","inputs":[{"name":"","type":"uint256","internalType":"uint256"}],"outputs":[{"name":"","type":"uint256","internalType":"uint256"}],"stateMutability":"view"},{"type":"function","name":"initialize","inputs":[{"name":"owner_","type":"address","internalType":"address"},{"name":"validatorLocked_","type":"bool","internalType":"bool"},{"name":"frensStorage_","type":"address","internalType":"contract IFrensStorage"}],"outputs":[],"stateMutability":"nonpayable"},{"type":"function","name":"locked","inputs":[{"name":"","type":"uint256","internalType":"uint256"}],"outputs":[{"name":"","type":"bool","internalType":"bool"}],"stateMutability":"view"},{"type":"function","name":"owner","inputs":[],"outputs":[{"name":"","type":"address","internalType":"address"}],"stateMutability":"view"},{"type":"function","name":"pubKey","inputs":[],"outputs":[{"name":"","type":"bytes","internalType":"bytes"}],"stateMutability":"view"},{"type":"function","name":"rageQuitInfo","inputs":[{"name":"","type":"uint256","internalType":"uint256"}],"outputs":[{"name":"price","type":"uint256","internalType":"uint256"},{"name":"time","type":"uint256","internalType":"uint256"},{"name":"rageQuitting","type":"bool","internalType":"bool"}],"stateMutability":"view"},{"type":"function","name":"renounceOwnership","inputs":[],"outputs":[],"stateMutability":"nonpayable"},{"type":"function","name":"setArt","inputs":[{"name":"newArtContract","type":"address","internalType":"contract IFrensArt"}],"outputs":[],"stateMutability":"nonpayable"},{"type":"function","name":"setPubKey","inputs":[{"name":"_pubKey","type":"bytes","internalType":"bytes"},{"name":"_withdrawal_credentials","type":"bytes","internalType":"bytes"},{"name":"_signature","type":"bytes","internalType":"bytes"},{"name":"_deposit_data_root","type":"bytes32","internalType":"bytes32"}],"outputs":[],"stateMutability":"nonpayable"},{"type":"function","name":"signature","inputs":[],"outputs":[{"name":"","type":"bytes","internalType":"bytes"}],"stateMutability":"view"},{"type":"function","name":"stake","inputs":[],"outputs":[],"stateMutability":"nonpayable"},{"type":"function","name":"stake","inputs":[{"name":"_pubKey","type":"bytes","internalType":"bytes"},{"name":"_withdrawal_credentials","type":"bytes","internalType":"bytes"},{"name":"_signature","type":"bytes","internalType":"bytes"},{"name":"_deposit_data_root","type":"bytes32","internalType":"bytes32"}],"outputs":[],"stateMutability":"nonpayable"},{"type":"function","name":"totalClaims","inputs":[],"outputs":[{"name":"","type":"uint256","internalType":"uint256"}],"stateMutability":"view"},{"type":"function","name":"totalDeposits","inputs":[],"outputs":[{"name":"","type":"uint256","internalType":"uint256"}],"stateMutability":"view"},{"type":"function","name":"transferLocked","inputs":[],"outputs":[{"name":"","type":"bool","internalType":"bool"}],"stateMutability":"view"},{"type":"function","name":"transferOwnership","inputs":[{"name":"newOwner","type":"address","internalType":"address"}],"outputs":[],"stateMutability":"nonpayable"},{"type":"function","name":"transferToken","inputs":[{"name":"tokenAddress","type":"address","internalType":"address"},{"name":"to","type":"address","internalType":"address"},{"name":"amount","type":"uint256","internalType":"uint256"}],"outputs":[],"stateMutability":"nonpayable"},{"type":"function","name":"validatorLocked","inputs":[],"outputs":[{"name":"","type":"bool","internalType":"bool"}],"stateMutability":"view"},{"type":"function","name":"validatorSet","inputs":[],"outputs":[{"name":"","type":"bool","internalType":"bool"}],"stateMutability":"view"},{"type":"function","name":"withdraw","inputs":[{"name":"_id","type":"uint256","internalType":"uint256"},{"name":"_amount","type":"uint256","internalType":"uint256"}],"outputs":[],"stateMutability":"nonpayable"},{"type":"function","name":"withdrawal_credentials","inputs":[],"outputs":[{"name":"","type":"bytes","internalType":"bytes"}],"stateMutability":"view"},{"type":"event","name":"AddToDeposit","inputs":[{"name":"id","type":"uint256","indexed":false,"internalType":"uint256"},{"name":"ammount","type":"uint256","indexed":false,"internalType":"uint256"}],"anonymous":false},{"type":"event","name":"Claim","inputs":[{"name":"id","type":"uint256","indexed":false,"internalType":"uint256"},{"name":"amount","type":"uint256","indexed":false,"internalType":"uint256"},{"name":"recipient","type":"address","indexed":false,"internalType":"address"}],"anonymous":false},{"type":"event","name":"DepositToPool","inputs":[{"name":"amount","type":"uint256","indexed":false,"internalType":"uint256"},{"name":"depositer","type":"address","indexed":false,"internalType":"address"},{"name":"id","type":"uint256","indexed":false,"internalType":"uint256"}],"anonymous":false},{"type":"event","name":"Initialized","inputs":[{"name":"version","type":"uint64","indexed":false,"internalType":"uint64"}],"anonymous":false},{"type":"event","name":"OwnershipTransferred","inputs":[{"name":"previousOwner","type":"address","indexed":true,"internalType":"address"},{"name":"newOwner","type":"address","indexed":true,"internalType":"address"}],"anonymous":false},{"type":"event","name":"SetArt","inputs":[{"name":"newArt","type":"address","indexed":false,"internalType":"address"},{"name":"owner","type":"address","indexed":false,"internalType":"address"}],"anonymous":false},{"type":"event","name":"SetPubKey","inputs":[{"name":"_pubKey","type":"bytes","indexed":false,"internalType":"bytes"},{"name":"_withdrawal_credentials","type":"bytes","indexed":false,"internalType":"bytes"},{"name":"_signature","type":"bytes","indexed":false,"internalType":"bytes"},{"name":"_deposit_data_root","type":"bytes32","indexed":false,"internalType":"bytes32"}],"anonymous":false},{"type":"event","name":"Stake","inputs":[{"name":"depositContractAddress","type":"address","indexed":false,"internalType":"address"},{"name":"caller","type":"address","indexed":false,"internalType":"address"}],"anonymous":false},{"type":"event","name":"Withdraw","inputs":[{"name":"id","type":"uint256","indexed":false,"internalType":"uint256"},{"name":"amount","type":"uint256","indexed":false,"internalType":"uint256"},{"name":"recipient","type":"address","indexed":false,"internalType":"address"}],"anonymous":false},{"type":"error","name":"InvalidInitialization","inputs":[]},{"type":"error","name":"NotInitializing","inputs":[]},{"type":"error","name":"OwnableInvalidOwner","inputs":[{"name":"owner","type":"address","internalType":"address"}]},{"type":"error","name":"OwnableUnauthorizedAccount","inputs":[{"name":"account","type":"address","internalType":"address"}]}],"bytecode":{"object":"0x6080806040523461001657612fae908161001c8239f35b600080fdfe6080604081815260048036101561001e575b505050361561001c57005b005b600092833560e01c9081630c3f6acf14611ea15750806312686aae14611e7a5780631865c57d14611e495780632cf2cd4814611e225780632daad61d14611dfb57806330dbf88714611dd2578063379607f5146119ad5780633a4b66f11461199457806341c6138314611975578063441a3e701461177957806345b58fe4146116c6578063469048401461169d5780634888a7d114610e055780634b2b4e3614610d4857806351ff484714610d23578063591167c714610cfa578063678e300a14610cda578063715018a614610c70578063735a531314610b335780637d88209714610b145780637fd6f15c14610af55780638620891c1461095a578063888e9cf8146109225780638ae578fd146108f95780638da5cb5b146108c35780639426e2261461089c578063ac2a5dfd14610877578063b45a3c0e1461084b578063cfb5a5f8146107a2578063e2d9ae3e14610783578063e3f05d831461075f578063e4a502761461071d578063e6b1a3ae146105a4578063e920eec01461057e578063e94ad65b14610551578063f2fde38b14610524578063f5537ede1461046b578063f9faa1041461021a5763fc03bad203610011573461021657602036600319011261021657606092818392358252602052209081549160ff60026001830154920154169082519384526020840152151590820152f35b8280fd5b50826003193601126102165734156104345760ff83541681811015610421576001610245911461231f565b6102656801bc16d674ec80000061025e60055434612364565b1115612387565b600f5482516318160ddd60e01b8152602093909290916001600160a01b0390859085908490829085165afa9384156104175786946103e4575b508386526001855234838720556102b734600554612364565b600555600754680100000000000000008110156103d157906102e18260018995940160075561229b565b81549060031b9087821b91600019901b19161790558483526002865260018484205560ff60095460081c16600387528484209060ff801983541691151516179055600f5416803b156102165760248392855194859384926335313c2160e11b845233908401525af180156103c75761038d575b5091606091837fd91527a40417d48f76ba016aaa9157e2ddaca6cb5b660432901659cb075058fc9451923484523390840152820152a180f35b917fd91527a40417d48f76ba016aaa9157e2ddaca6cb5b660432901659cb075058fc9391946103bd6060946121c4565b9491935091610354565b82513d87823e3d90fd5b634e487b7160e01b875260418352602487fd5b9093508481813d8311610410575b6103fc8183612226565b8101031261040c5751923861029e565b8580fd5b503d6103f2565b83513d88823e3d90fd5b634e487b7160e01b845260218252602484fd5b6020606492519162461bcd60e51b8352820152601260248201527136bab9ba103232b837b9b4ba1032ba3432b960711b6044820152fd5b50346102165760603660031901126102165782610486611f25565b916001600160a01b036024358181169290839003610520576020936044926104ac612ede565b8751968795869463a9059cbb60e01b865285015284356024850152165af1908115610514576104e3925083916104e6575b50612665565b80f35b610507915060203d811161050d575b6104ff8183612226565b810190612307565b386104dd565b503d6104f5565b505051903d90823e3d90fd5b8380fd5b833461054e57602036600319011261054e576104e3610541611f25565b610549612ede565b612e6a565b80fd5b50503461057a578160031936011261057a5760125490516001600160a01b039091168152602090f35b5080fd5b833461054e576104e361059036611f6e565b9561059f959195949294612ede565b6126a3565b50903461021657602091826003193601126105205780356001600160a01b0381169390849003610719576105d6612ede565b825163516b636d60e11b81528281018690528581602481885afa90811561070f578691610692575b50511561065b57601080546001600160a01b0319168517905582516001600160a01b038516815233602082015285907fe7bc3d97fc839fb6cd9e115f3db7695d56df2b786e558f581230a00b412d43639080604081015b0390a180f35b606492519162461bcd60e51b835282015260146024820152731a5b9d985b1a5908185c9d0818dbdb9d1c9858dd60621b6044820152fd5b90503d8087833e6106a38183612226565b810190828183031261070b5780519067ffffffffffffffff8211610707570181601f8201121561070b5780516106d881612248565b926106e587519485612226565b8184528482840101116107075761070191848085019101611edd565b386105fe565b8780fd5b8680fd5b84513d88823e3d90fd5b8480fd5b50503461057a578160031936011261057a57805161075b91610749826107428161213d565b0383612226565b51918291602083526020830190611f00565b0390f35b50503461057a578160031936011261057a5760209060ff6009541690519015158152f35b50503461057a578160031936011261057a57602090600d549051908152f35b503461021657602036600319011261021657600f548251631dc82a7560e01b81528235928101839052906001600160a01b03906020908390602490829085165afa91821561084157916108069161080b949360209792610812575b501630146123e5565b612c7b565b9051908152f35b610833919250873d811161083a575b61082b8183612226565b8101906122e8565b90386107fd565b503d610821565b84513d87823e3d90fd5b5034610216576020366003190112610216578160209360ff923581526003855220541690519015158152f35b50503461057a578160031936011261057a57805161075b916107498261074281612012565b50503461057a578160031936011261057a5760209060ff60095460101c1690519015158152f35b50503461057a578160031936011261057a57600080516020612f598339815191525490516001600160a01b039091168152602090f35b50503461057a578160031936011261057a5760105490516001600160a01b039091168152602090f35b503461021657602036600319011261021657359160075483101561054e575061094c60209261229b565b91905490519160031b1c8152f35b509190602092836003193601126102165780359060ff84541681811015610ae2576001610987911461231f565b6109a06801bc16d674ec80000061025e60055434612364565b600f548351631dc82a7560e01b81528281018490526001600160a01b03918216918782602481865afa918215610ad8578892602494926109e9928a92610ac057501630146123e5565b855192838092634f558e7960e01b825287878301525afa908115610841578591610aa3575b5015610a6c57508293817f2e4d11c40e9ddf229c2807835f88a91899498f9e8531757e8489a824b1bdc119945260018152828520610a4d348254612364565b9055610a5b34600554612364565b60055582519182523490820152a180f35b825162461bcd60e51b815290810185905260116024820152701a5908191bd95cc81b9bdd08195e1a5cdd607a1b6044820152606490fd5b610aba9150863d881161050d576104ff8183612226565b38610a0e565b610833919250853d871161083a5761082b8183612226565b86513d89823e3d90fd5b634e487b7160e01b855260218252602485fd5b50503461057a578160031936011261057a576020906008549051908152f35b50503461057a578160031936011261057a576020906005549051908152f35b50903461021657602090816003193601126105205783833567ffffffffffffffff811161057a573660238201121561057a57610b789036906024818801359101612264565b610b80612ede565b60018060a01b0360115416848451818101907865787465726e616c2e636f6e74726163742e6164647265737360381b8252695353564e6574776f726b60b01b603982015260238152610bd18161220a565b51902060248651809481936321f8a72160e01b83528b8301525afa908115610c6657908392918391610c49575b50828683519301915af1610c10612c38565b5015610c1a578380f35b5162461bcd60e51b815291820152600b60248201526a10d85b1b0819985a5b195960aa1b604482015260649150fd5b610c609150863d881161083a5761082b8183612226565b38610bfe565b84513d85823e3d90fd5b833461054e578060031936011261054e57610c89612ede565b600080516020612f5983398151915280546001600160a01b0319811690915581906001600160a01b03167f8be0079c531659141344cd1fd0a4f28419497f9722a3daafe3b4186f6b6457e08280a380f35b50913461054e57602036600319011261054e575061080b60209235612cee565b50503461057a578160031936011261057a57600f5490516001600160a01b039091168152602090f35b50503461057a578160031936011261057a57805161075b9161074982610742816120b6565b503461021657610d5736611f6e565b93610d66989698939193612ede565b60095460101c60ff1615610df057505050505092610d879192933691612264565b602081519101208151610da481610d9d81612012565b0382612226565b6020815191012003610dbb5750505b6104e361246b565b906020606492519162461bcd60e51b8352820152600f60248201526e0e0eac496caf240dad2e6dac2e8c6d608b1b6044820152fd5b92955092955092610e00966126a3565b610db3565b50903461021657606036600319011261021657610e20611f25565b9060249182359283151580940361040c576001600160a01b0394604480358781169290839003611699577ff0c57e16840df040f15088dc2f81fe391c3923bec73e23a9662efc9c229c6a009788549560ff87891c16159667ffffffffffffffff811680159081611691575b6001149081611687575b15908161167e575b5061166e5767ffffffffffffffff1981166001178b558761164f575b50818116156115fc57610ed690610ece612f17565b610549612f17565b83156115a7576bffffffffffffffffffffffff60a01b97848960115416176011558751906020998a83016f636f6e74726163742e6164647265737360801b9384825267119c995b9cd05c9d60c21b603082015260188152610f36816121ee565b519020928d8b516321f8a72160e01b95868252888201528d818c818d5afa91821561149857908e889361158a575b505016801561153657908e918360105416176010558b518d81019182526d4672656e73506f6f6c536861726560901b6030820152601e8152610fa5816121ee565b5190208b5190858252878201528c818b818c5afa91821561140e57908692611519575b501681600f541617600f558951968d8c89017865787465726e616c2e636f6e74726163742e6164647265737360381b998a82526e11195c1bdcda5d10dbdb9d1c9858dd608a1b6039820152602881526110208161220a565b5190208c5190868252888201528d818c81865afa91821561149857908e88936114fc575b50501680156114a3578260125416176012558d8b518d810190731c1c9bdd1bd8dbdb0b9999594b9c195c98d95b9d60621b825260148152611084816121ee565b519020908c519163bd02d0f560e01b8352888301528d828c81865afa9081156114985790611466575b600a91508060085511611419578d908c8c8b815183810190751c1c9bdd1bd8dbdb0b9999594b9c9958da5c1a595b9d60521b8252601681526110ee816121ee565b5190209151809481938a83528c8301525afa91821561140e579086926113f1575b50168091600e541617600e551561139e5760ff199060ff82600954169116809117600955600014611391578b54168b555b81601154169088518a8101908782526729a9ab2a37b5b2b760c11b60398201526021815261116d8161220a565b519020895190828252858201528a818981865afa908d821561138657908592611369575b50169586156113105790878b928b51848101918252695353564e6574776f726b60b01b6039820152602381526111c68161220a565b519020918b5194859384928352888301525afa908115611306578b916112e9575b5016928315611283579089889493928851968795869463095ea7b360e01b8652850152600019908401525af1801561041757611266575b50611227578380f35b7fc7f505b2f371ae2175ee4913f4499e1f2633a7b5936321eed1cdaeb6115181d29268ff00000000000000001981541690555160018152a13880808380f35b61127c90843d861161050d576104ff8183612226565b503861121e565b507f4652454e5320636f6e7472616374206572726f72206e6f20535356206e6574776084926038868a8a519562461bcd60e51b87528601528401528201527f6f726b20636f6e747261637420616464726573732073657400000000000000006064820152fd5b6113009150893d8b1161083a5761082b8183612226565b386111e7565b88513d8d823e3d90fd5b50885162461bcd60e51b81528085018b9052602e818901527f4652454e5320636f6e7472616374206572726f72206e6f2053535620746f6b65818701526d1b8818dbdb9d1c9858dd081cd95d60921b6064820152608490fd5b61138091508c8d3d1061083a5761082b8183612226565b38611191565b8b51903d90823e3d90fd5b8b54166001178b55611140565b885162461bcd60e51b81528085018b90526029818901527f4652454e5320636f6e7472616374206572726f72206e6f20666565207265636981870152681c1a595b9d081cd95d60ba1b6064820152608490fd5b61140891508d803d1061083a5761082b8183612226565b3861110f565b8c51903d90823e3d90fd5b5050885162461bcd60e51b81528085018b90526021818901527f4652454e5320636f6e7472616374206572726f722066656520746f6f2068696781870152600d60fb1b6064820152608490fd5b508c81813d8311611491575b61147c8183612226565b8101031261148d57600a90516110ad565b8e80fd5b503d611472565b8d51903d90823e3d90fd5b5050895162461bcd60e51b81528086018c9052602c818a01527f4652454e5320636f6e7472616374206572726f72206e6f204465706f73697420818801526b18dbdb9d1c9858dd081cd95d60a21b606482015260849150fd5b6115129250803d1061083a5761082b8183612226565b388e611044565b61153091508d803d1061083a5761082b8183612226565b38610fc8565b5050895162461bcd60e51b81528086018c90526027818a01527f4652454e5320636f6e7472616374206572726f72206e6f2061727420616464728188015266195cdcc81cd95d60ca1b606482015260849150fd5b6115a09250803d1061083a5761082b8183612226565b388e610f64565b507f4652454e5320636f6e7472616374206572726f72206e6f2073746f7261676520608492602b8660208a519562461bcd60e51b87528601528401528201526a1859191c995cdcc81cd95d60aa1b6064820152fd5b875162461bcd60e51b81526020818501526029818801527f4652454e5320636f6e7472616374206572726f72206e6f206f776e65722061648186015268191c995cdcc81cd95d60ba1b6064820152608490fd5b68ffffffffffffffffff191668010000000000000001178a5538610eb9565b885163f92ee8a960e01b81528490fd5b90501538610e9d565b303b159150610e95565b899150610e8b565b8880fd5b50503461057a578160031936011261057a57600e5490516001600160a01b039091168152602090f35b82843461054e578060031936011261054e579080519182906007549182855260208095018093600784527fa66cc928b5edb82af9bd49922954155ab7b0942694bea4ce44661d9a8736c68890845b818110611765575050508161172a910382612226565b83519485948186019282875251809352850193925b82811061174e57505050500390f35b83518552869550938101939281019260010161173f565b825484529288019260019283019201611714565b5034610216578160031936011261021657803590602480359160ff865416818110156119635760016117ab911461231f565b600f5485516331a9108f60e11b8082528382018790526020949290916001600160a01b0391869082908690829086165afa80156119595782918b9161193c575b5016330361190a578689526001855285888a2054106118d1579286928594928a9693858852600185528a88206118228a8254612c2b565b905561183089600554612c2b565b600555600f54168a51958694859384528301525afa9182156118c75792808080877f71ef96c43343734b1d843bb85d52ef329f5e9143e4d35827771e3b0dd90c5f849a9661188f966106559984926118aa575b50505af16104dd612c38565b51928352602083019190915233604083015281906060820190565b6118c09250803d1061083a5761082b8183612226565b3880611883565b86513d85823e3d90fd5b875162461bcd60e51b8152808501869052601481850152731b9bdd08195b9bdd59da0819195c1bdcda5d195960621b6044820152606490fd5b875162461bcd60e51b8152808501869052600d818501526c3737ba103a34329037bbb732b960991b6044820152606490fd5b6119539150873d891161083a5761082b8183612226565b386117eb565b89513d8c823e3d90fd5b50634e487b7160e01b86526021905284fd5b50503461057a578160031936011261057a576020906006549051908152f35b833461054e578060031936011261054e57610db3612ede565b5091903461057a5760208060031936011261021657600f548251631dc82a7560e01b8152853581870181905292916024916001600160a01b0391849082908590829086165afa908115610ad85790611a10918891611db5575b50821630146123e5565b60ff8654169680881015611da35760018814611d61576064471115611d1157959694958795600314611d0857816011541692848851818101906f636f6e74726163742e6164647265737360801b82526a4672656e734f7261636c6560a81b6030820152601b8152611a80816121ee565b519020828a51809781936321f8a72160e01b8352878301525afa938415611cfe578382899688938891611ce1575b508b5163404df7b160e11b815230878201529a8b938492165af1968715611cd7578497611cb8575b508680611c88575b611c78575b611aec86612c7b565b9686855260028652888520611b02898254612364565b9055611b1088600654612364565b600655600854908115159081611c6f575b50611bf2575b50600f5488516331a9108f60e11b815292830187905285918391829086165afa938415611be8577fd79254e5daba749baa8ba954e77bbbb18efef113a8070d00df9a188d8193242697928492889261065597611bbb575b50509180808093611b959588165af16104dd612c38565b5192835260208301939093526001600160a01b0390921660408201529081906060820190565b849384939750611bdd849383611b959894903d1061083a5761082b8183612226565b979350939450611b7e565b87513d85823e3d90fd5b876064611c0288949a8a94612c68565b049060018211611c1f575b90611c1791612c2b565b979150611b27565b9250929394505083600e5416600019830190838211611c5d578a9594938793611c55888080808e98611c17985af16104dd612c38565b909150611c0d565b634e487b7160e01b8b5260118552888bfd5b90501538611b21565b835460ff19166003178455611ae3565b5090919260ff90541682811015611ca6579060028994939214611ade565b50634e487b7160e01b88526021825287fd5b611cd0919750853d871161050d576104ff8183612226565b9538611ad6565b88513d86823e3d90fd5b611cf89150843d861161083a5761082b8183612226565b38611aae565b88513d89823e3d90fd5b60019592611ae3565b855162461bcd60e51b81529081018490526025818401527f6d7573742062652067726561746572207468616e203130302077656920746f20604482015264636c61696d60d81b6064820152608490fd5b855162461bcd60e51b8152908101849052601c818401527f757365207769746864726177207768656e206e6f74207374616b6564000000006044820152606490fd5b634e487b7160e01b8752602190528186fd5b611dcc9150853d871161083a5761082b8183612226565b38611a06565b50503461057a578160031936011261057a5760115490516001600160a01b039091168152602090f35b50346102165760203660031901126102165760209282913581526001845220549051908152f35b50346102165760203660031901126102165760209282913581526002845220549051908152f35b50503461057a578160031936011261057a5761075b90611e67612d67565b9051918291602083526020830190611f00565b50503461057a578160031936011261057a5760209060ff60095460081c1690519015158152f35b9050833461054e578060031936011261054e5760ff8154169083821015611eca57602083838152f35b634e487b7160e01b815260218452602490fd5b60005b838110611ef05750506000910152565b8181015183820152602001611ee0565b90602091611f1981518092818552858086019101611edd565b601f01601f1916010190565b600435906001600160a01b0382168203611f3b57565b600080fd5b9181601f84011215611f3b5782359167ffffffffffffffff8311611f3b5760208381860195010111611f3b57565b906080600319830112611f3b5767ffffffffffffffff600435818111611f3b5783611f9b91600401611f40565b93909392602435838111611f3b5782611fb691600401611f40565b93909392604435918211611f3b57611fd091600401611f40565b909160643590565b90600182811c92168015612008575b6020831014611ff257565b634e487b7160e01b600052602260045260246000fd5b91607f1691611fe7565b600a546000929161202282611fd8565b80825291600190818116908115612099575060011461204057505050565b91929350600a6000527fc65a7bb8d6351c1cf70c95a316cc6a92839c986682d98bc35f958f4883f9d2a8916000925b84841061208157505060209250010190565b8054602085850181019190915290930192810161206f565b915050602093945060ff929192191683830152151560051b010190565b600c54600092916120c682611fd8565b8082529160019081811690811561209957506001146120e457505050565b91929350600c6000527fdf6966c971051c3d54ec59162606531493a51404a002842f56009d7e5cf4a8c7916000925b84841061212557505060209250010190565b80546020858501810191909152909301928101612113565b600b546000929161214d82611fd8565b80825291600190818116908115612099575060011461216b57505050565b91929350600b6000527f0175b7a638427703f0dbe7bb9bbf987a2551717b34e79f33b5b1008d1fa01db9916000925b8484106121ac57505060209250010190565b8054602085850181019190915290930192810161219a565b67ffffffffffffffff81116121d857604052565b634e487b7160e01b600052604160045260246000fd5b6040810190811067ffffffffffffffff8211176121d857604052565b6060810190811067ffffffffffffffff8211176121d857604052565b90601f8019910116810190811067ffffffffffffffff8211176121d857604052565b67ffffffffffffffff81116121d857601f01601f191660200190565b92919261227082612248565b9161227e6040519384612226565b829481845281830111611f3b578281602093846000960137010152565b6007548110156122d25760076000527fa66cc928b5edb82af9bd49922954155ab7b0942694bea4ce44661d9a8736c6880190600090565b634e487b7160e01b600052603260045260246000fd5b90816020910312611f3b57516001600160a01b0381168103611f3b5790565b90816020910312611f3b57518015158103611f3b5790565b1561232657565b60405162461bcd60e51b81526020600482015260166024820152756e6f7420616363657074696e67206465706f7369747360501b6044820152606490fd5b9190820180921161237157565b634e487b7160e01b600052601160045260246000fd5b1561238e57565b60405162461bcd60e51b815260206004820152602960248201527f746f74616c206465706f736974732063616e6e6f74206265206d6f72652074686044820152680c2dc406664408ae8d60bb1b6064820152608490fd5b156123ec57565b60405162461bcd60e51b815260206004820152601960248201527f77726f6e67207374616b696e6720706f6f6c20666f72206964000000000000006044820152606490fd5b1561243857565b60405162461bcd60e51b815260206004820152600b60248201526a77726f6e6720737461746560a81b6044820152606490fd5b6801bc16d674ec80000080471061262f5780600554036125f457600090815460ff811660048110156125e05760016124a39114612431565b60ff60095460101c16156125a75760ff19166002178255601254600d546001600160a01b0393918416803b156102165790829160405180958180946304512a2360e31b8252608060048301526125236124fe60848401612012565b612514600319918286820301602487015261213d565b908482030160448501526120b6565b90606483015203925af190811561259b575091612587917f72b356fd889b9abd3530accd2c9f4aecbce67d70757181f9f862ac91464ce1929361258c575b5060125460408051929091166001600160a01b0316825233602083015290918291820190565b0390a1565b612595906121c4565b38612561565b604051903d90823e3d90fd5b60405162461bcd60e51b81526020600482015260116024820152701d985b1a59185d1bdc881b9bdd081cd95d607a1b6044820152606490fd5b634e487b7160e01b84526021600452602484fd5b60405162461bcd60e51b81526020600482015260136024820152726e6f7420656e6f756768206465706f7369747360681b6044820152606490fd5b60405162461bcd60e51b815260206004820152600e60248201526d0dcdee840cadcdeeaced040cae8d60931b6044820152606490fd5b1561266c57565b634e487b7160e01b600052600160045260246000fd5b908060209392818452848401376000828201840152601f01601f1916010190565b949190939695926040519160209283810190600160f81b82526000918260218301523060601b602c8301528582526126da826121ee565b6126e5368686612264565b8681519101209151902003612be65760095460ff8116612bac575b5060ff815416906004821015612b985761271d6001809314612431565b67ffffffffffffffff9081891161298757612739600a54611fd8565b9189601f93848111612b34575b5082848211600114612aa8578391612a9d575b5060001960038c901b1c19168a851b17600a555b808611612a895761277f600b54611fd8565b838111612a27575b5085828482116001146129a657839161299b575b50600019600388901b1c191686851b17600b555b8711612987576127c0600c54611fd8565b828111612925575b508091871160011461287b579286807ffd84b86d2e47014cef6e8fc5310d3968b38c5998dd6a57a8b68b350628b8f9f89c9d97946128659997946128579793612870575b501b906000198760031b1c191617600c555b87600d556201000062ff000019600954161760095561284a6040519a8b9a60808c5260808c0191612682565b92898403908a0152612682565b918583036040870152612682565b9060608301520390a1565b89013592503861280c565b90601f198716600c83527fdf6966c971051c3d54ec59162606531493a51404a002842f56009d7e5cf4a8c7925b8181106129105750928795926128579592612865997ffd84b86d2e47014cef6e8fc5310d3968b38c5998dd6a57a8b68b350628b8f9f89e9f9996106128f6575b505085811b01600c5561281e565b880135600019600389901b60f8161c1916905538806128e8565b8d8301358455928401929187019187016128a8565b600c82527fdf6966c971051c3d54ec59162606531493a51404a002842f56009d7e5cf4a8c783808a0160051c820192898b1061297e575b0160051c019084905b8281106129735750506127c8565b838155018490612965565b9250819261295c565b634e487b7160e01b81526041600452602490fd5b90508501353861279b565b600b84527f0175b7a638427703f0dbe7bb9bbf987a2551717b34e79f33b5b1008d1fa01db9915087601f198116855b8b89838310612a1057505050106129f6575b50508386811b01600b556127af565b860135600019600389901b60f8161c1916905538806129e7565b858c0135875590950194938401938b9350016129d5565b600b83527f0175b7a638427703f0dbe7bb9bbf987a2551717b34e79f33b5b1008d1fa01db98480890160051c8201928a8a10612a80575b0160051c019085905b828110612a75575050612787565b848155018590612a67565b92508192612a5e565b634e487b7160e01b82526041600452602482fd5b90508b013538612759565b8c91601f198116600a86527fc65a7bb8d6351c1cf70c95a316cc6a92839c986682d98bc35f958f4883f9d2a8938b8988925b848410612b14575050505010612afa575b5050838a811b01600a5561276d565b8c013560001960038d901b60f8161c191690553880612aeb565b8294955095809791929396013581550194019201908d918f898d91612ada565b600a8452847fc65a7bb8d6351c1cf70c95a316cc6a92839c986682d98bc35f958f4883f9d2a8918a82850160051c84019410612b8f575b0160051c019085905b828110612b8457508b9150612746565b848155018590612b74565b92508192612b6b565b634e487b7160e01b81526021600452602490fd5b81549060ff821660048110156125e05760ff60019392612bcf612bd99315612431565b60101c1615612665565b60ff191617815538612700565b60405162461bcd60e51b815260048101859052601e60248201527f7769746864726177616c2063726564656e7469616c206d69736d6174636800006044820152606490fd5b9190820391821161237157565b3d15612c63573d90612c4982612248565b91612c576040519384612226565b82523d6000602084013e565b606090565b8181029291811591840414171561237157565b4715612ce8576000908152600160205260408120546002602052612cb1604083205491612cab4760065490612364565b90612c68565b600554908115612cd457048015612ccf57612ccc9250612c2b565b90565b505090565b634e487b7160e01b84526012600452602484fd5b50600090565b60ff60005416906004821015612d515760018203612d0d575050600090565b612d1690612c7b565b90600854908115159081612d45575b50612d2e575090565b906064612d3e82612ccc94612c68565b0490612c2b565b60039150141538612d25565b634e487b7160e01b600052602160045260246000fd5b60ff600054166004811015612d51578015612e305760028114612e0d5760018114612dde57600314612dbc57604051612d9f816121ee565b600d81526c7374617465206661696c75726560981b602082015290565b604051612dc8816121ee565b6006815265195e1a5d195960d21b602082015290565b50604051612deb816121ee565b6012815271616363657074696e67206465706f7369747360701b602082015290565b50604051612e1a816121ee565b60068152651cdd185ad95960d21b602082015290565b50604051612e3d816121ee565b601781527f6177616974696e672076616c696461746f7220696e666f000000000000000000602082015290565b6001600160a01b03908116908115612ec557600080516020612f5983398151915280546001600160a01b031981168417909155167f8be0079c531659141344cd1fd0a4f28419497f9722a3daafe3b4186f6b6457e0600080a3565b604051631e4fbdf760e01b815260006004820152602490fd5b600080516020612f59833981519152546001600160a01b03163303612eff57565b60405163118cdaa760e01b8152336004820152602490fd5b60ff7ff0c57e16840df040f15088dc2f81fe391c3923bec73e23a9662efc9c229c6a005460401c1615612f4657565b604051631afcd79f60e31b8152600490fdfe9016d09d72d40fdae2fd8ceac6b6234c7706214fd39c1cd1e609a0528c199300a26469706673582212207c9b1b9ee52d2a3783eadf47575a3f3166bcf1a6a50a5dd77cc08a9278c12f9c64736f6c63430008140033","linkReferences":{}},"methodIdentifiers":{"addToDeposit(uint256)":"8620891c","artForPool()":"8ae578fd","callSSVNetwork(bytes)":"735a5313","claim(uint256)":"379607f5","currentState()":"0c3f6acf","depositContract()":"e94ad65b","depositForId(uint256)":"2daad61d","depositToPool()":"f9faa104","deposit_data_root()":"e2d9ae3e","feePercent()":"7fd6f15c","feeRecipient()":"46904840","frenPastClaim(uint256)":"2cf2cd48","frensPoolShare()":"591167c7","frensStorage()":"30dbf887","getDistributableShare(uint256)":"678e300a","getIdsInThisPool()":"45b58fe4","getShare(uint256)":"cfb5a5f8","getState()":"1865c57d","idsInPool(uint256)":"888e9cf8","initialize(address,bool,address)":"4888a7d1","locked(uint256)":"b45a3c0e","owner()":"8da5cb5b","pubKey()":"ac2a5dfd","rageQuitInfo(uint256)":"fc03bad2","renounceOwnership()":"715018a6","setArt(address)":"e6b1a3ae","setPubKey(bytes,bytes,bytes,bytes32)":"e920eec0","signature()":"51ff4847","stake()":"3a4b66f1","stake(bytes,bytes,bytes,bytes32)":"4b2b4e36","totalClaims()":"41c61383","totalDeposits()":"7d882097","transferLocked()":"12686aae","transferOwnership(address)":"f2fde38b","transferToken(address,address,uint256)":"f5537ede","validatorLocked()":"e3f05d83","validatorSet()":"9426e226","withdraw(uint256,uint256)":"441a3e70","withdrawal_credentials()":"e4a50276"},"id":8}