{"abi":[{"type":"fallback","stateMutability":"payable"},{"type":"receive","stateMutability":"payable"},{"type":"function","name":"addToDeposit","inputs":[{"name":"_id","type":"uint256","internalType":"uint256"}],"outputs":[],"stateMutability":"payable"},{"type":"function","name":"artForPool","inputs":[],"outputs":[{"name":"","type":"address","internalType":"contract IFrensArt"}],"stateMutability":"view"},{"type":"function","name":"callSSVNetwork","inputs":[{"name":"data","type":"bytes","internalType":"bytes"}],"outputs":[],"stateMutability":"nonpayable"},{"type":"function","name":"claim","inputs":[{"name":"_id","type":"uint256","internalType":"uint256"}],"outputs":[],"stateMutability":"nonpayable"},{"type":"function","name":"currentState","inputs":[],"outputs":[{"name":"","type":"uint8","internalType":"enum StakingPool.PoolState"}],"stateMutability":"view"},{"type":"function","name":"depositContract","inputs":[],"outputs":[{"name":"","type":"address","internalType":"contract IDepositContract"}],"stateMutability":"view"},{"type":"function","name":"depositForId","inputs":[{"name":"","type":"uint256","internalType":"uint256"}],"outputs":[{"name":"","type":"uint256","internalType":"uint256"}],"stateMutability":"view"},{"type":"function","name":"depositToPool","inputs":[],"outputs":[],"stateMutability":"payable"},{"type":"function","name":"deposit_data_root","inputs":[],"outputs":[{"name":"","type":"bytes32","internalType":"bytes32"}],"stateMutability":"view"},{"type":"function","name":"feePercent","inputs":[],"outputs":[{"name":"","type":"uint256","internalType":"uint256"}],"stateMutability":"view"},{"type":"function","name":"feeRecipient","inputs":[],"outputs":[{"name":"","type":"address","internalType":"address"}],"stateMutability":"view"},{"type":"function","name":"frenPastClaim","inputs":[{"name":"","type":"uint256","internalType":"uint256"}],"outputs":[{"name":"","type":"uint256","internalType":"uint256"}],"stateMutability":"view"},{"type":"function","name":"frensPoolShare","inputs":[],"outputs":[{"name":"","type":"address","internalType":"contract IFrensPoolShare"}],"stateMutability":"view"},{"type":"function","name":"frensStorage","inputs":[],"outputs":[{"name":"","type":"address","internalType":"contract IFrensStorage"}],"stateMutability":"view"},{"type":"function","name":"getDistributableShare","inputs":[{"name":"_id","type":"uint256","internalType":"uint256"}],"outputs":[{"name":"","type":"uint256","internalType":"uint256"}],"stateMutability":"view"},{"type":"function","name":"getIdsInThisPool","inputs":[],"outputs":[{"name":"","type":"uint256[]","internalType":"uint256[]"}],"stateMutability":"view"},{"type":"function","name":"getShare","inputs":[{"name":"_id","type":"uint256","internalType":"uint256"}],"outputs":[{"name":"","type":"uint256","internalType":"uint256"}],"stateMutability":"view"},{"type":"function","name":"getState","inputs":[],"outputs":[{"name":"","type":"string","internalType":"string"}],"stateMutability":"view"},{"type":"function","name":"idsInPool","inputs":[{"name":"","type":"uint256","internalType":"uint256"}],"outputs":[{"name":"","type":"uint256","internalType":"uint256"}],"stateMutability":"view"},{"type":"function","name":"initialize","inputs":[{"name":"owner_","type":"address","internalType":"address"},{"name":"validatorLocked_","type":"bool","internalType":"bool"},{"name":"frensStorage_","type":"address","internalType":"contract IFrensStorage"}],"outputs":[],"stateMutability":"nonpayable"},{"type":"function","name":"locked","inputs":[{"name":"","type":"uint256","internalType":"uint256"}],"outputs":[{"name":"","type":"bool","internalType":"bool"}],"stateMutability":"view"},{"type":"function","name":"owner","inputs":[],"outputs":[{"name":"","type":"address","internalType":"address"}],"stateMutability":"view"},{"type":"function","name":"pubKey","inputs":[],"outputs":[{"name":"","type":"bytes","internalType":"bytes"}],"stateMutability":"view"},{"type":"function","name":"rageQuitInfo","inputs":[{"name":"","type":"uint256","internalType":"uint256"}],"outputs":[{"name":"price","type":"uint256","internalType":"uint256"},{"name":"time","type":"uint256","internalType":"uint256"},{"name":"rageQuitting","type":"bool","internalType":"bool"}],"stateMutability":"view"},{"type":"function","name":"renounceOwnership","inputs":[],"outputs":[],"stateMutability":"nonpayable"},{"type":"function","name":"setArt","inputs":[{"name":"newArtContract","type":"address","internalType":"contract IFrensArt"}],"outputs":[],"stateMutability":"nonpayable"},{"type":"function","name":"setPubKey","inputs":[{"name":"_pubKey","type":"bytes","internalType":"bytes"},{"name":"_withdrawal_credentials","type":"bytes","internalType":"bytes"},{"name":"_signature","type":"bytes","internalType":"bytes"},{"name":"_deposit_data_root","type":"bytes32","internalType":"bytes32"}],"outputs":[],"stateMutability":"nonpayable"},{"type":"function","name":"signature","inputs":[],"outputs":[{"name":"","type":"bytes","internalType":"bytes"}],"stateMutability":"view"},{"type":"function","name":"stake","inputs":[],"outputs":[],"stateMutability":"nonpayable"},{"type":"function","name":"stake","inputs":[{"name":"_pubKey","type":"bytes","internalType":"bytes"},{"name":"_withdrawal_credentials","type":"bytes","internalType":"bytes"},{"name":"_signature","type":"bytes","internalType":"bytes"},{"name":"_deposit_data_root","type":"bytes32","internalType":"bytes32"}],"outputs":[],"stateMutability":"nonpayable"},{"type":"function","name":"totalClaims","inputs":[],"outputs":[{"name":"","type":"uint256","internalType":"uint256"}],"stateMutability":"view"},{"type":"function","name":"totalDeposits","inputs":[],"outputs":[{"name":"","type":"uint256","internalType":"uint256"}],"stateMutability":"view"},{"type":"function","name":"transferLocked","inputs":[],"outputs":[{"name":"","type":"bool","internalType":"bool"}],"stateMutability":"view"},{"type":"function","name":"transferOwnership","inputs":[{"name":"newOwner","type":"address","internalType":"address"}],"outputs":[],"stateMutability":"nonpayable"},{"type":"function","name":"transferToken","inputs":[{"name":"tokenAddress","type":"address","internalType":"address"},{"name":"to","type":"address","internalType":"address"},{"name":"amount","type":"uint256","internalType":"uint256"}],"outputs":[],"stateMutability":"nonpayable"},{"type":"function","name":"validatorLocked","inputs":[],"outputs":[{"name":"","type":"bool","internalType":"bool"}],"stateMutability":"view"},{"type":"function","name":"validatorSet","inputs":[],"outputs":[{"name":"","type":"bool","internalType":"bool"}],"stateMutability":"view"},{"type":"function","name":"withdraw","inputs":[{"name":"_id","type":"uint256","internalType":"uint256"},{"name":"_amount","type":"uint256","internalType":"uint256"}],"outputs":[],"stateMutability":"nonpayable"},{"type":"function","name":"withdrawal_credentials","inputs":[],"outputs":[{"name":"","type":"bytes","internalType":"bytes"}],"stateMutability":"view"},{"type":"event","name":"AddToDeposit","inputs":[{"name":"id","type":"uint256","indexed":false,"internalType":"uint256"},{"name":"ammount","type":"uint256","indexed":false,"internalType":"uint256"}],"anonymous":false},{"type":"event","name":"Claim","inputs":[{"name":"id","type":"uint256","indexed":false,"internalType":"uint256"},{"name":"amount","type":"uint256","indexed":false,"internalType":"uint256"},{"name":"recipient","type":"address","indexed":false,"internalType":"address"}],"anonymous":false},{"type":"event","name":"DepositToPool","inputs":[{"name":"amount","type":"uint256","indexed":false,"internalType":"uint256"},{"name":"depositer","type":"address","indexed":false,"internalType":"address"},{"name":"id","type":"uint256","indexed":false,"internalType":"uint256"}],"anonymous":false},{"type":"event","name":"Initialized","inputs":[{"name":"version","type":"uint64","indexed":false,"internalType":"uint64"}],"anonymous":false},{"type":"event","name":"OwnershipTransferred","inputs":[{"name":"previousOwner","type":"address","indexed":true,"internalType":"address"},{"name":"newOwner","type":"address","indexed":true,"internalType":"address"}],"anonymous":false},{"type":"event","name":"SetPubKey","inputs":[{"name":"_pubKey","type":"bytes","indexed":false,"internalType":"bytes"},{"name":"_withdrawal_credentials","type":"bytes","indexed":false,"internalType":"bytes"},{"name":"_signature","type":"bytes","indexed":false,"internalType":"bytes"},{"name":"_deposit_data_root","type":"bytes32","indexed":false,"internalType":"bytes32"}],"anonymous":false},{"type":"event","name":"Stake","inputs":[{"name":"depositContractAddress","type":"address","indexed":false,"internalType":"address"},{"name":"caller","type":"address","indexed":false,"internalType":"address"}],"anonymous":false},{"type":"event","name":"Withdraw","inputs":[{"name":"id","type":"uint256","indexed":false,"internalType":"uint256"},{"name":"amount","type":"uint256","indexed":false,"internalType":"uint256"},{"name":"recipient","type":"address","indexed":false,"internalType":"address"}],"anonymous":false},{"type":"error","name":"InvalidInitialization","inputs":[]},{"type":"error","name":"NotInitializing","inputs":[]},{"type":"error","name":"OwnableInvalidOwner","inputs":[{"name":"owner","type":"address","internalType":"address"}]},{"type":"error","name":"OwnableUnauthorizedAccount","inputs":[{"name":"account","type":"address","internalType":"address"}]}],"bytecode":{"object":"0x6080806040523461001657612f5a908161001c8239f35b600080fdfe6080604081815260048036101561001e575b505050361561001c57005b005b600092833560e01c9081630c3f6acf14611e665750806312686aae14611e3f5780631865c57d14611e0e5780632cf2cd4814611de75780632daad61d14611dc057806330dbf88714611d97578063379607f5146119725780633a4b66f11461195957806341c613831461193a578063441a3e701461173257806345b58fe41461167f57806346904840146116565780634888a7d114610dbe5780634b2b4e3614610d0157806351ff484714610cdc578063591167c714610cb3578063678e300a14610c93578063715018a614610c29578063735a531314610aec5780637d88209714610acd5780637fd6f15c14610aae5780638620891c14610913578063888e9cf8146108db5780638ae578fd146108b25780638da5cb5b1461087c5780639426e22614610855578063ac2a5dfd14610830578063b45a3c0e14610804578063cfb5a5f81461075b578063e2d9ae3e1461073c578063e3f05d8314610718578063e4a50276146106d6578063e6b1a3ae14610596578063e920eec014610570578063e94ad65b14610543578063f2fde38b14610513578063f5537ede1461046b578063f9faa1041461021a5763fc03bad203610011573461021657602036600319011261021657606092818392358252602052209081549160ff60026001830154920154169082519384526020840152151590820152f35b8280fd5b50826003193601126102165734156104345760ff8354168181101561042157600161024591146122e4565b6102656801bc16d674ec80000061025e60055434612329565b111561234c565b600f5482516318160ddd60e01b8152602093909290916001600160a01b0390859085908490829085165afa9384156104175786946103e4575b508386526001855234838720556102b734600554612329565b600555600754680100000000000000008110156103d157906102e182600189959401600755612260565b81549060031b9087821b91600019901b19161790558483526002865260018484205560ff60095460081c16600387528484209060ff801983541691151516179055600f5416803b156102165760248392855194859384926335313c2160e11b845233908401525af180156103c75761038d575b5091606091837fd91527a40417d48f76ba016aaa9157e2ddaca6cb5b660432901659cb075058fc9451923484523390840152820152a180f35b917fd91527a40417d48f76ba016aaa9157e2ddaca6cb5b660432901659cb075058fc9391946103bd606094612189565b9491935091610354565b82513d87823e3d90fd5b634e487b7160e01b875260418352602487fd5b9093508481813d8311610410575b6103fc81836121eb565b8101031261040c5751923861029e565b8580fd5b503d6103f2565b83513d88823e3d90fd5b634e487b7160e01b845260218252602484fd5b6020606492519162461bcd60e51b8352820152601260248201527136bab9ba103232b837b9b4ba1032ba3432b960711b6044820152fd5b5090346102165760603660031901126102165782610487611eea565b926001600160a01b03602435818116929083900361050f576020936044926104ad612e8a565b8651978895869463a9059cbb60e01b865285015284356024850152165af190811561050657506104db575080f35b6104fb9060203d81116104ff575b6104f381836121eb565b8101906122cc565b5080f35b503d6104e9565b513d84823e3d90fd5b8380fd5b83346105405760203660031901126105405761053d610530611eea565b610538612e8a565b612e16565b80f35b80fd5b50503461056c578160031936011261056c5760125490516001600160a01b039091168152602090f35b5080fd5b83346105405761053d61058236611f33565b95610591959195949294612e8a565b61264f565b50346102165760208060031936011261050f5781356001600160a01b03811693908490036106d2576105c6612e8a565b805163516b636d60e11b81528381018690528581602481885afa9081156106c857869161064b575b505115610613575050506bffffffffffffffffffffffff60a01b601054161760105580f35b5162461bcd60e51b81529182015260146024820152731a5b9d985b1a5908185c9d0818dbdb9d1c9858dd60621b604482015260649150fd5b90503d8087833e61065c81836121eb565b81019083818303126106c45780519067ffffffffffffffff82116106c0570181601f820112156106c45780516106918161220d565b9261069e855194856121eb565b8184528582840101116106c0576106ba91858085019101611ea2565b386105ee565b8780fd5b8680fd5b82513d88823e3d90fd5b8480fd5b50503461056c578160031936011261056c57805161071491610702826106fb81612102565b03836121eb565b51918291602083526020830190611ec5565b0390f35b50503461056c578160031936011261056c5760209060ff6009541690519015158152f35b50503461056c578160031936011261056c57602090600d549051908152f35b503461021657602036600319011261021657600f548251631dc82a7560e01b81528235928101839052906001600160a01b03906020908390602490829085165afa9182156107fa57916107bf916107c49493602097926107cb575b501630146123aa565b612c27565b9051908152f35b6107ec919250873d81116107f3575b6107e481836121eb565b8101906122ad565b90386107b6565b503d6107da565b84513d87823e3d90fd5b5034610216576020366003190112610216578160209360ff923581526003855220541690519015158152f35b50503461056c578160031936011261056c57805161071491610702826106fb81611fd7565b50503461056c578160031936011261056c5760209060ff60095460101c1690519015158152f35b50503461056c578160031936011261056c57600080516020612f058339815191525490516001600160a01b039091168152602090f35b50503461056c578160031936011261056c5760105490516001600160a01b039091168152602090f35b50346102165760203660031901126102165735916007548310156105405750610905602092612260565b91905490519160031b1c8152f35b509190602092836003193601126102165780359060ff84541681811015610a9b57600161094091146122e4565b6109596801bc16d674ec80000061025e60055434612329565b600f548351631dc82a7560e01b81528281018490526001600160a01b03918216918782602481865afa918215610a91578892602494926109a2928a92610a7957501630146123aa565b855192838092634f558e7960e01b825287878301525afa9081156107fa578591610a5c575b5015610a2557508293817f2e4d11c40e9ddf229c2807835f88a91899498f9e8531757e8489a824b1bdc119945260018152828520610a06348254612329565b9055610a1434600554612329565b60055582519182523490820152a180f35b825162461bcd60e51b815290810185905260116024820152701a5908191bd95cc81b9bdd08195e1a5cdd607a1b6044820152606490fd5b610a739150863d88116104ff576104f381836121eb565b386109c7565b6107ec919250853d87116107f3576107e481836121eb565b86513d89823e3d90fd5b634e487b7160e01b855260218252602485fd5b50503461056c578160031936011261056c576020906008549051908152f35b50503461056c578160031936011261056c576020906005549051908152f35b509034610216576020908160031936011261050f5783833567ffffffffffffffff811161056c573660238201121561056c57610b319036906024818801359101612229565b610b39612e8a565b60018060a01b0360115416848451818101907865787465726e616c2e636f6e74726163742e6164647265737360381b8252695353564e6574776f726b60b01b603982015260238152610b8a816121cf565b51902060248651809481936321f8a72160e01b83528b8301525afa908115610c1f57908392918391610c02575b50828683519301915af1610bc9612be4565b5015610bd3578380f35b5162461bcd60e51b815291820152600b60248201526a10d85b1b0819985a5b195960aa1b604482015260649150fd5b610c199150863d88116107f3576107e481836121eb565b38610bb7565b84513d85823e3d90fd5b8334610540578060031936011261054057610c42612e8a565b600080516020612f0583398151915280546001600160a01b0319811690915581906001600160a01b03167f8be0079c531659141344cd1fd0a4f28419497f9722a3daafe3b4186f6b6457e08280a380f35b50913461054057602036600319011261054057506107c460209235612c9a565b50503461056c578160031936011261056c57600f5490516001600160a01b039091168152602090f35b50503461056c578160031936011261056c57805161071491610702826106fb8161207b565b503461021657610d1036611f33565b93610d1f989698939193612e8a565b60095460101c60ff1615610da957505050505092610d409192933691612229565b602081519101208151610d5d81610d5681611fd7565b03826121eb565b6020815191012003610d745750505b61053d612430565b906020606492519162461bcd60e51b8352820152600f60248201526e0e0eac496caf240dad2e6dac2e8c6d608b1b6044820152fd5b92955092955092610db99661264f565b610d6c565b50903461021657606036600319011261021657610dd9611eea565b9060249182359283151580940361040c576001600160a01b0394604480358781169290839003611652577ff0c57e16840df040f15088dc2f81fe391c3923bec73e23a9662efc9c229c6a009788549560ff87891c16159667ffffffffffffffff81168015908161164a575b6001149081611640575b159081611637575b506116275767ffffffffffffffff1981166001178b5587611608575b50818116156115b557610e8f90610e87612ec3565b610538612ec3565b8315611560576bffffffffffffffffffffffff60a01b97848960115416176011558751906020998a83016f636f6e74726163742e6164647265737360801b9384825267119c995b9cd05c9d60c21b603082015260188152610eef816121b3565b519020928d8b516321f8a72160e01b95868252888201528d818c818d5afa91821561145157908e8893611543575b50501680156114ef57908e918360105416176010558b518d81019182526d4672656e73506f6f6c536861726560901b6030820152601e8152610f5e816121b3565b5190208b5190858252878201528c818b818c5afa9182156113c7579086926114d2575b501681600f541617600f558951968d8c89017865787465726e616c2e636f6e74726163742e6164647265737360381b998a82526e11195c1bdcda5d10dbdb9d1c9858dd608a1b603982015260288152610fd9816121cf565b5190208c5190868252888201528d818c81865afa91821561145157908e88936114b5575b505016801561145c578260125416176012558d8b518d810190731c1c9bdd1bd8dbdb0b9999594b9c195c98d95b9d60621b82526014815261103d816121b3565b519020908c519163bd02d0f560e01b8352888301528d828c81865afa908115611451579061141f575b600a915080600855116113d2578d908c8c8b815183810190751c1c9bdd1bd8dbdb0b9999594b9c9958da5c1a595b9d60521b8252601681526110a7816121b3565b5190209151809481938a83528c8301525afa9182156113c7579086926113aa575b50168091600e541617600e55156113575760ff199060ff8260095416911680911760095560001461134a578b54168b555b81601154169088518a8101908782526729a9ab2a37b5b2b760c11b603982015260218152611126816121cf565b519020895190828252858201528a818981865afa908d821561133f57908592611322575b50169586156112c95790878b928b51848101918252695353564e6574776f726b60b01b60398201526023815261117f816121cf565b519020918b5194859384928352888301525afa9081156112bf578b916112a2575b501692831561123c579089889493928851968795869463095ea7b360e01b8652850152600019908401525af180156104175761121f575b506111e0578380f35b7fc7f505b2f371ae2175ee4913f4499e1f2633a7b5936321eed1cdaeb6115181d29268ff00000000000000001981541690555160018152a13880808380f35b61123590843d86116104ff576104f381836121eb565b50386111d7565b507f4652454e5320636f6e7472616374206572726f72206e6f20535356206e6574776084926038868a8a519562461bcd60e51b87528601528401528201527f6f726b20636f6e747261637420616464726573732073657400000000000000006064820152fd5b6112b99150893d8b116107f3576107e481836121eb565b386111a0565b88513d8d823e3d90fd5b50885162461bcd60e51b81528085018b9052602e818901527f4652454e5320636f6e7472616374206572726f72206e6f2053535620746f6b65818701526d1b8818dbdb9d1c9858dd081cd95d60921b6064820152608490fd5b61133991508c8d3d106107f3576107e481836121eb565b3861114a565b8b51903d90823e3d90fd5b8b54166001178b556110f9565b885162461bcd60e51b81528085018b90526029818901527f4652454e5320636f6e7472616374206572726f72206e6f20666565207265636981870152681c1a595b9d081cd95d60ba1b6064820152608490fd5b6113c191508d803d106107f3576107e481836121eb565b386110c8565b8c51903d90823e3d90fd5b5050885162461bcd60e51b81528085018b90526021818901527f4652454e5320636f6e7472616374206572726f722066656520746f6f2068696781870152600d60fb1b6064820152608490fd5b508c81813d831161144a575b61143581836121eb565b8101031261144657600a9051611066565b8e80fd5b503d61142b565b8d51903d90823e3d90fd5b5050895162461bcd60e51b81528086018c9052602c818a01527f4652454e5320636f6e7472616374206572726f72206e6f204465706f73697420818801526b18dbdb9d1c9858dd081cd95d60a21b606482015260849150fd5b6114cb9250803d106107f3576107e481836121eb565b388e610ffd565b6114e991508d803d106107f3576107e481836121eb565b38610f81565b5050895162461bcd60e51b81528086018c90526027818a01527f4652454e5320636f6e7472616374206572726f72206e6f2061727420616464728188015266195cdcc81cd95d60ca1b606482015260849150fd5b6115599250803d106107f3576107e481836121eb565b388e610f1d565b507f4652454e5320636f6e7472616374206572726f72206e6f2073746f7261676520608492602b8660208a519562461bcd60e51b87528601528401528201526a1859191c995cdcc81cd95d60aa1b6064820152fd5b875162461bcd60e51b81526020818501526029818801527f4652454e5320636f6e7472616374206572726f72206e6f206f776e65722061648186015268191c995cdcc81cd95d60ba1b6064820152608490fd5b68ffffffffffffffffff191668010000000000000001178a5538610e72565b885163f92ee8a960e01b81528490fd5b90501538610e56565b303b159150610e4e565b899150610e44565b8880fd5b50503461056c578160031936011261056c57600e5490516001600160a01b039091168152602090f35b8284346105405780600319360112610540579080519182906007549182855260208095018093600784527fa66cc928b5edb82af9bd49922954155ab7b0942694bea4ce44661d9a8736c68890845b81811061171e57505050816116e39103826121eb565b83519485948186019282875251809352850193925b82811061170757505050500390f35b8351855286955093810193928101926001016116f8565b8254845292880192600192830192016116cd565b5034610216578160031936011261021657803590602480359160ff8654168181101561192857600161176491146122e4565b600f5485516331a9108f60e11b8082528382018790526020949290916001600160a01b0391869082908690829086165afa801561191e5782918b91611901575b501633036118cf578689526001855285888a205410611896579286928594928a9693858852600185528a88206117db8a8254612bd7565b90556117e989600554612bd7565b600555600f54168a51958694859384528301525afa91821561188c5792808080877f71ef96c43343734b1d843bb85d52ef329f5e9143e4d35827771e3b0dd90c5f849a9661184e9661186999849261186f575b50505af1611848612be4565b50612611565b51928352602083019190915233604083015281906060820190565b0390a180f35b6118859250803d106107f3576107e481836121eb565b388061183c565b86513d85823e3d90fd5b875162461bcd60e51b8152808501869052601481850152731b9bdd08195b9bdd59da0819195c1bdcda5d195960621b6044820152606490fd5b875162461bcd60e51b8152808501869052600d818501526c3737ba103a34329037bbb732b960991b6044820152606490fd5b6119189150873d89116107f3576107e481836121eb565b386117a4565b89513d8c823e3d90fd5b50634e487b7160e01b86526021905284fd5b50503461056c578160031936011261056c576020906006549051908152f35b8334610540578060031936011261054057610d6c612e8a565b5091903461056c5760208060031936011261021657600f548251631dc82a7560e01b8152853581870181905292916024916001600160a01b0391849082908590829086165afa908115610a9157906119d5918891611d7a575b50821630146123aa565b60ff8654169680881015611d685760018814611d26576064471115611cd657959694958795600314611ccd57816011541692848851818101906f636f6e74726163742e6164647265737360801b82526a4672656e734f7261636c6560a81b6030820152601b8152611a45816121b3565b519020828a51809781936321f8a72160e01b8352878301525afa938415611cc3578382899688938891611ca6575b508b5163404df7b160e11b815230878201529a8b938492165af1968715611c9c578497611c7d575b508680611c4d575b611c3d575b611ab186612c27565b9686855260028652888520611ac7898254612329565b9055611ad588600654612329565b600655600854908115159081611c34575b50611bb7575b50600f5488516331a9108f60e11b815292830187905285918391829086165afa938415611bad577fd79254e5daba749baa8ba954e77bbbb18efef113a8070d00df9a188d8193242697928492889261186997611b80575b50509180808093611b5a9588165af1611848612be4565b5192835260208301939093526001600160a01b0390921660408201529081906060820190565b849384939750611ba2849383611b5a9894903d106107f3576107e481836121eb565b979350939450611b43565b87513d85823e3d90fd5b876064611bc788949a8a94612c14565b049060018211611be4575b90611bdc91612bd7565b979150611aec565b9250929394505083600e5416600019830190838211611c22578a9594938793611c1a888080808e98611bdc985af1611848612be4565b909150611bd2565b634e487b7160e01b8b5260118552888bfd5b90501538611ae6565b835460ff19166003178455611aa8565b5090919260ff90541682811015611c6b579060028994939214611aa3565b50634e487b7160e01b88526021825287fd5b611c95919750853d87116104ff576104f381836121eb565b9538611a9b565b88513d86823e3d90fd5b611cbd9150843d86116107f3576107e481836121eb565b38611a73565b88513d89823e3d90fd5b60019592611aa8565b855162461bcd60e51b81529081018490526025818401527f6d7573742062652067726561746572207468616e203130302077656920746f20604482015264636c61696d60d81b6064820152608490fd5b855162461bcd60e51b8152908101849052601c818401527f757365207769746864726177207768656e206e6f74207374616b6564000000006044820152606490fd5b634e487b7160e01b8752602190528186fd5b611d919150853d87116107f3576107e481836121eb565b386119cb565b50503461056c578160031936011261056c5760115490516001600160a01b039091168152602090f35b50346102165760203660031901126102165760209282913581526001845220549051908152f35b50346102165760203660031901126102165760209282913581526002845220549051908152f35b50503461056c578160031936011261056c5761071490611e2c612d13565b9051918291602083526020830190611ec5565b50503461056c578160031936011261056c5760209060ff60095460081c1690519015158152f35b9050833461054057806003193601126105405760ff8154169083821015611e8f57602083838152f35b634e487b7160e01b815260218452602490fd5b60005b838110611eb55750506000910152565b8181015183820152602001611ea5565b90602091611ede81518092818552858086019101611ea2565b601f01601f1916010190565b600435906001600160a01b0382168203611f0057565b600080fd5b9181601f84011215611f005782359167ffffffffffffffff8311611f005760208381860195010111611f0057565b906080600319830112611f005767ffffffffffffffff600435818111611f005783611f6091600401611f05565b93909392602435838111611f005782611f7b91600401611f05565b93909392604435918211611f0057611f9591600401611f05565b909160643590565b90600182811c92168015611fcd575b6020831014611fb757565b634e487b7160e01b600052602260045260246000fd5b91607f1691611fac565b600a5460009291611fe782611f9d565b8082529160019081811690811561205e575060011461200557505050565b91929350600a6000527fc65a7bb8d6351c1cf70c95a316cc6a92839c986682d98bc35f958f4883f9d2a8916000925b84841061204657505060209250010190565b80546020858501810191909152909301928101612034565b915050602093945060ff929192191683830152151560051b010190565b600c546000929161208b82611f9d565b8082529160019081811690811561205e57506001146120a957505050565b91929350600c6000527fdf6966c971051c3d54ec59162606531493a51404a002842f56009d7e5cf4a8c7916000925b8484106120ea57505060209250010190565b805460208585018101919091529093019281016120d8565b600b546000929161211282611f9d565b8082529160019081811690811561205e575060011461213057505050565b91929350600b6000527f0175b7a638427703f0dbe7bb9bbf987a2551717b34e79f33b5b1008d1fa01db9916000925b84841061217157505060209250010190565b8054602085850181019190915290930192810161215f565b67ffffffffffffffff811161219d57604052565b634e487b7160e01b600052604160045260246000fd5b6040810190811067ffffffffffffffff82111761219d57604052565b6060810190811067ffffffffffffffff82111761219d57604052565b90601f8019910116810190811067ffffffffffffffff82111761219d57604052565b67ffffffffffffffff811161219d57601f01601f191660200190565b9291926122358261220d565b9161224360405193846121eb565b829481845281830111611f00578281602093846000960137010152565b6007548110156122975760076000527fa66cc928b5edb82af9bd49922954155ab7b0942694bea4ce44661d9a8736c6880190600090565b634e487b7160e01b600052603260045260246000fd5b90816020910312611f0057516001600160a01b0381168103611f005790565b90816020910312611f0057518015158103611f005790565b156122eb57565b60405162461bcd60e51b81526020600482015260166024820152756e6f7420616363657074696e67206465706f7369747360501b6044820152606490fd5b9190820180921161233657565b634e487b7160e01b600052601160045260246000fd5b1561235357565b60405162461bcd60e51b815260206004820152602960248201527f746f74616c206465706f736974732063616e6e6f74206265206d6f72652074686044820152680c2dc406664408ae8d60bb1b6064820152608490fd5b156123b157565b60405162461bcd60e51b815260206004820152601960248201527f77726f6e67207374616b696e6720706f6f6c20666f72206964000000000000006044820152606490fd5b156123fd57565b60405162461bcd60e51b815260206004820152600b60248201526a77726f6e6720737461746560a81b6044820152606490fd5b6801bc16d674ec8000008047106125db5780600554036125a057600090815460ff8116600481101561258c57600161246891146123f6565b60ff60095460101c16156125535760ff19166002178255601254600d546001600160a01b0393918416803b156102165790829160405180958180946304512a2360e31b8252608060048301526124e86124c360848401611fd7565b6124d96003199182868203016024870152612102565b9084820301604485015261207b565b90606483015203925af19081156125475750916040917f72b356fd889b9abd3530accd2c9f4aecbce67d70757181f9f862ac91464ce19293612538575b50601254168151908152336020820152a1565b61254190612189565b38612525565b604051903d90823e3d90fd5b60405162461bcd60e51b81526020600482015260116024820152701d985b1a59185d1bdc881b9bdd081cd95d607a1b6044820152606490fd5b634e487b7160e01b84526021600452602484fd5b60405162461bcd60e51b81526020600482015260136024820152726e6f7420656e6f756768206465706f7369747360681b6044820152606490fd5b60405162461bcd60e51b815260206004820152600e60248201526d0dcdee840cadcdeeaced040cae8d60931b6044820152606490fd5b1561261857565b634e487b7160e01b600052600160045260246000fd5b908060209392818452848401376000828201840152601f01601f1916010190565b949190939695926040519160209283810190600160f81b82526000918260218301523060601b602c830152858252612686826121b3565b612691368686612229565b8681519101209151902003612b925760095460ff8116612b58575b5060ff815416906004821015612b44576126c960018093146123f6565b67ffffffffffffffff90818911612933576126e5600a54611f9d565b9189601f93848111612ae0575b5082848211600114612a54578391612a49575b5060001960038c901b1c19168a851b17600a555b808611612a355761272b600b54611f9d565b8381116129d3575b508582848211600114612952578391612947575b50600019600388901b1c191686851b17600b555b87116129335761276c600c54611f9d565b8281116128d1575b5080918711600114612827579286807ffd84b86d2e47014cef6e8fc5310d3968b38c5998dd6a57a8b68b350628b8f9f89c9d9794612811999794612803979361281c575b501b906000198760031b1c191617600c555b87600d556201000062ff00001960095416176009556127f66040519a8b9a60808c5260808c019161262e565b92898403908a015261262e565b91858303604087015261262e565b9060608301520390a1565b8901359250386127b8565b90601f198716600c83527fdf6966c971051c3d54ec59162606531493a51404a002842f56009d7e5cf4a8c7925b8181106128bc5750928795926128039592612811997ffd84b86d2e47014cef6e8fc5310d3968b38c5998dd6a57a8b68b350628b8f9f89e9f9996106128a2575b505085811b01600c556127ca565b880135600019600389901b60f8161c191690553880612894565b8d830135845592840192918701918701612854565b600c82527fdf6966c971051c3d54ec59162606531493a51404a002842f56009d7e5cf4a8c783808a0160051c820192898b1061292a575b0160051c019084905b82811061291f575050612774565b838155018490612911565b92508192612908565b634e487b7160e01b81526041600452602490fd5b905085013538612747565b600b84527f0175b7a638427703f0dbe7bb9bbf987a2551717b34e79f33b5b1008d1fa01db9915087601f198116855b8b898383106129bc57505050106129a2575b50508386811b01600b5561275b565b860135600019600389901b60f8161c191690553880612993565b858c0135875590950194938401938b935001612981565b600b83527f0175b7a638427703f0dbe7bb9bbf987a2551717b34e79f33b5b1008d1fa01db98480890160051c8201928a8a10612a2c575b0160051c019085905b828110612a21575050612733565b848155018590612a13565b92508192612a0a565b634e487b7160e01b82526041600452602482fd5b90508b013538612705565b8c91601f198116600a86527fc65a7bb8d6351c1cf70c95a316cc6a92839c986682d98bc35f958f4883f9d2a8938b8988925b848410612ac0575050505010612aa6575b5050838a811b01600a55612719565b8c013560001960038d901b60f8161c191690553880612a97565b8294955095809791929396013581550194019201908d918f898d91612a86565b600a8452847fc65a7bb8d6351c1cf70c95a316cc6a92839c986682d98bc35f958f4883f9d2a8918a82850160051c84019410612b3b575b0160051c019085905b828110612b3057508b91506126f2565b848155018590612b20565b92508192612b17565b634e487b7160e01b81526021600452602490fd5b81549060ff8216600481101561258c5760ff60019392612b7b612b8593156123f6565b60101c1615612611565b60ff1916178155386126ac565b60405162461bcd60e51b815260048101859052601e60248201527f7769746864726177616c2063726564656e7469616c206d69736d6174636800006044820152606490fd5b9190820391821161233657565b3d15612c0f573d90612bf58261220d565b91612c0360405193846121eb565b82523d6000602084013e565b606090565b8181029291811591840414171561233657565b4715612c94576000908152600160205260408120546002602052612c5d604083205491612c574760065490612329565b90612c14565b600554908115612c8057048015612c7b57612c789250612bd7565b90565b505090565b634e487b7160e01b84526012600452602484fd5b50600090565b60ff60005416906004821015612cfd5760018203612cb9575050600090565b612cc290612c27565b90600854908115159081612cf1575b50612cda575090565b906064612cea82612c7894612c14565b0490612bd7565b60039150141538612cd1565b634e487b7160e01b600052602160045260246000fd5b60ff600054166004811015612cfd578015612ddc5760028114612db95760018114612d8a57600314612d6857604051612d4b816121b3565b600d81526c7374617465206661696c75726560981b602082015290565b604051612d74816121b3565b6006815265195e1a5d195960d21b602082015290565b50604051612d97816121b3565b6012815271616363657074696e67206465706f7369747360701b602082015290565b50604051612dc6816121b3565b60068152651cdd185ad95960d21b602082015290565b50604051612de9816121b3565b601781527f6177616974696e672076616c696461746f7220696e666f000000000000000000602082015290565b6001600160a01b03908116908115612e7157600080516020612f0583398151915280546001600160a01b031981168417909155167f8be0079c531659141344cd1fd0a4f28419497f9722a3daafe3b4186f6b6457e0600080a3565b604051631e4fbdf760e01b815260006004820152602490fd5b600080516020612f05833981519152546001600160a01b03163303612eab57565b60405163118cdaa760e01b8152336004820152602490fd5b60ff7ff0c57e16840df040f15088dc2f81fe391c3923bec73e23a9662efc9c229c6a005460401c1615612ef257565b604051631afcd79f60e31b8152600490fdfe9016d09d72d40fdae2fd8ceac6b6234c7706214fd39c1cd1e609a0528c199300a2646970667358221220af4a2d85df41e1d2a3480b877a0897f2ae9324e7dc4cc71176b14fde264bcecf64736f6c63430008140033","linkReferences":{}},"methodIdentifiers":{"addToDeposit(uint256)":"8620891c","artForPool()":"8ae578fd","callSSVNetwork(bytes)":"735a5313","claim(uint256)":"379607f5","currentState()":"0c3f6acf","depositContract()":"e94ad65b","depositForId(uint256)":"2daad61d","depositToPool()":"f9faa104","deposit_data_root()":"e2d9ae3e","feePercent()":"7fd6f15c","feeRecipient()":"46904840","frenPastClaim(uint256)":"2cf2cd48","frensPoolShare()":"591167c7","frensStorage()":"30dbf887","getDistributableShare(uint256)":"678e300a","getIdsInThisPool()":"45b58fe4","getShare(uint256)":"cfb5a5f8","getState()":"1865c57d","idsInPool(uint256)":"888e9cf8","initialize(address,bool,address)":"4888a7d1","locked(uint256)":"b45a3c0e","owner()":"8da5cb5b","pubKey()":"ac2a5dfd","rageQuitInfo(uint256)":"fc03bad2","renounceOwnership()":"715018a6","setArt(address)":"e6b1a3ae","setPubKey(bytes,bytes,bytes,bytes32)":"e920eec0","signature()":"51ff4847","stake()":"3a4b66f1","stake(bytes,bytes,bytes,bytes32)":"4b2b4e36","totalClaims()":"41c61383","totalDeposits()":"7d882097","transferLocked()":"12686aae","transferOwnership(address)":"f2fde38b","transferToken(address,address,uint256)":"f5537ede","validatorLocked()":"e3f05d83","validatorSet()":"9426e226","withdraw(uint256,uint256)":"441a3e70","withdrawal_credentials()":"e4a50276"},"id":8}