{
  "abi": [
    {
      "inputs": [
        {
          "internalType": "contract IFrensStorage",
          "name": "frensStorage_",
          "type": "address"
        }
      ],
      "stateMutability": "nonpayable",
      "type": "constructor"
    },
    {
      "inputs": [
        {
          "internalType": "uint256",
          "name": "id",
          "type": "uint256"
        }
      ],
      "name": "tokenURI",
      "outputs": [
        {
          "internalType": "string",
          "name": "",
          "type": "string"
        }
      ],
      "stateMutability": "view",
      "type": "function"
    }
  ],
  "bytecode": {
    "object": "0x6080604090808252346200016457806200121b803803809162000023828562000169565b83396020928391810103126200016457516001600160a01b038082169290918390036200016457600180546001600160a01b0319908116851790915584516f636f6e74726163742e6164647265737360801b8382019081526d4672656e73506f6f6c536861726560901b6030830152601e825291949092838701929091906001600160401b038411858510176200014e5760248484938193828c52885190206321f8a72160e01b835260448901525afa9283156200014357600093620000ff575b505050169060005416176000555161108d90816200018e8239f35b813d83116200013b575b62000115818562000169565b81010312620001375751908282168203620001345750388080620000e4565b80fd5b5080fd5b503d62000109565b86513d6000823e3d90fd5b634e487b7160e01b600052604160045260246000fd5b600080fd5b601f909101601f19168101906001600160401b038211908210176200014e5760405256fe6040608081526004908136101561001557600080fd5b6000803560e01c63c87b56dd1461002b57600080fd5b346107ec57602092836003193601126107e8578154813592859291610060906001600160a01b03165b6001600160a01b031690565b93634f558e7960e01b608052836080607f1961007f849060a491608452565b0181885afa80156107db575b82906107ab575b61009b906108d4565b6001546100b0906001600160a01b0316610054565b94818761013487825199818b018b6100fd6100e2836010906f636f6e74726163742e6164647265737360801b81520190565b6e233932b739a6b2ba30a432b63832b960891b8152600f0190565b039b610111601f199d8e8101835282610885565b51902084516321f8a72160e01b81528a8101918252938492918391829160200190565b03915afa90811561079e575b8691610781575b508151630178b36760e31b81528088019384526001600160a01b0391821694919384928a918391908290819060200103915afa908115610774575b8791610757575b501693815192631865c57d60e01b8452868981868b818b5afa95861561074a575b829661072c575b5061024395968a86519663ef21184f60e01b88528488806101d98a8683019190602083019252565b0381865afa97881561071f575b8598610703575b5080516333c7180560e11b815284818d81806102108d8983019190602083019252565b03915afa9485156106f6575b86956106c7575b5050516376e8a45160e11b81529081019283529687928391829160200190565b03915afa9384156106ba575b8794610696575b5061026086610e41565b9661026a83610c0d565b988c51809a8c820161029490601190706672656e20706f6f6c207368617265202360781b81520190565b61029d916109cf565b038c81018b526102ad908b610885565b8c51809b81016102e190601b907f74686973206672656e206861732061206465706f736974206f6620000000000081520190565b6102eb90876109cf565b6c01022ba341034b7103837b7b61609d1b8152600d0161030b908b6109cf565b7f2c207769746820636c61696d61626c652062616c616e6365206f6620000000008152601c0161033b90886109cf565b630408ae8d60e31b8152600401038c81018c52610358908c610885565b8d8d518092638da5cb5b60e01b8252818b5afa918215610689575b9161065c575b501661038490610e41565b9461038e916109e6565b61039790610f6e565b9489519788978c89016103ba90600990683d913730b6b2911d1160b91b81520190565b6103c3916109cf565b71111610113232b9b1b934b83a34b7b7111d1160711b81526012016103e7916109cf565b7f222c202265787465726e616c5f75726c223a2268747470733a2f2f6170702e6681526d72656e732e66756e2f706f6f6c2f60901b6020820152602e0161042e90826109cf565b7f222c202261747472696275746573223a205b7b2274726169745f74797065223a81527110113837b7b6111610113b30b63ab2911d1160711b6020820152603201610478916109cf565b7f227d2c7b2274726169745f74797065223a20226465706f736974222c20227661815266363ab2911d101160c91b60208201526027016104b7916109cf565b630408ae8d60e31b81526004017f227d2c7b2274726169745f74797065223a2022636c61696d61626c65222c20228152683b30b63ab2911d101160b91b6020820152602901610505916109cf565b630408ae8d60e31b81526004017f227d2c7b2274726169745f74797065223a2022706f6f6c207374617465222c20815269113b30b63ab2911d101160b11b6020820152602a01610554916109cf565b7f227d2c7b2274726169745f74797065223a2022706f6f6c2063726561746f722281526b1610113b30b63ab2911d101160a11b6020820152602c01610598916109cf565b6e113eae96101134b6b0b3b2911d101160891b8152600f017f646174613a696d6167652f7376672b786d6c3b6261736536342c0000000000008152601a016105df916109cf565b61227d60f01b81526002010382810182526105fa9082610885565b61060390610f6e565b82517f646174613a6170706c69636174696f6e2f6a736f6e3b6261736536342c00000094810194855293849190601d0161063c916109cf565b03908101835261064c9083610885565b51610658819282610812565b0390f35b61067c91508d803d10610682575b6106748183610885565b810190610914565b38610379565b503d61066a565b6106916108c7565b610373565b6106b39194503d8089833e6106ab8183610885565b81019061095e565b9238610256565b6106c26108c7565b61024f565b6106e7929550803d106106ef575b6106df8183610885565b8101906109c0565b92388e610223565b503d6106d5565b6106fe6108c7565b61021c565b6107189198503d8087833e6106ab8183610885565b96386101ed565b6107276108c7565b6101e6565b6102439650610744903d8085833e6106ab8183610885565b956101b1565b6107526108c7565b6101aa565b61076e9150893d8b11610682576106748183610885565b38610189565b61077c6108c7565b610182565b6107989150883d8a11610682576106748183610885565b38610147565b6107a66108c7565b610140565b50833d85116107d4575b6107cd816107c561009b93610855565b6080016108a7565b9050610092565b503d6107b5565b6107e36108c7565b61008b565b5080fd5b80fd5b60005b8381106108025750506000910152565b81810151838201526020016107f2565b6040916020825261083281518092816020860152602086860191016107ef565b601f01601f1916010190565b50634e487b7160e01b600052604160045260246000fd5b601f80199101166080016080811067ffffffffffffffff82111761087857604052565b61088061083e565b604052565b90601f8019910116810190811067ffffffffffffffff82111761087857604052565b602090607f1901126108c25760805180151581036108c25790565b600080fd5b506040513d6000823e3d90fd5b156108db57565b60405162461bcd60e51b81526020600482015260116024820152701a5908191bd95cc81b9bdd08195e1a5cdd607a1b6044820152606490fd5b908160209103126108c257516001600160a01b03811681036108c25790565b60209067ffffffffffffffff8111610951575b601f01601f19160190565b61095961083e565b610946565b6020818303126108c25780519067ffffffffffffffff82116108c2570181601f820112156108c257805161099181610933565b9261099f6040519485610885565b818452602082840101116108c2576109bd91602080850191016107ef565b90565b908160209103126108c2575190565b906109e2602092828151948592016107ef565b0190565b610afb916000610a446109bd9360405190638ae578fd60e01b825260208260048160018060a01b038099165afa918215610b61575b8492610b41575b5060405194858094819363516b636d60e11b8352600483019190602083019252565b0392165afa908115610b34575b600091610b1b575b50610b0d604051938492610af560208501606c907f3c7376672077696474683d2234303022206865696768743d223430302220786d81527f6c6e733d22687474703a2f2f7777772e77332e6f72672f323030302f7376672260208201527f20786d6c6e733a786c696e6b3d22687474703a2f2f7777772e77332e6f72672f60408201526b189c9c9c97bc3634b735911f60a11b60608201520190565b906109cf565b651e17b9bb339f60d11b815260060190565b03601f198101835282610885565b610b2e913d8091833e6106ab8183610885565b38610a59565b610b3c6108c7565b610a51565b610b5a91925060203d8111610682576106748183610885565b9038610a22565b610b696108c7565b610a1b565b604051906020820182811067ffffffffffffffff821117610b93575b60405260008252565b610b9b61083e565b610b8a565b604051906060820182811067ffffffffffffffff821117610bce575b604052602a8252604082602036910137565b610bd661083e565b610bbc565b90610be582610933565b610bf26040519182610885565b8281528092610c03601f1991610933565b0190602036910137565b806000917a184f03e93ff9f4daa797ed6e38ed64bf6a1f01000000000000000080821015610d42575b506d04ee2d6d415b85acef810000000080831015610d33575b50662386f26fc1000080831015610d24575b506305f5e10080831015610d15575b5061271080831015610d06575b506064821015610cf6575b600a80921015610cec575b600190816021610ca4828701610bdb565b95860101905b610cb6575b5050505090565b600019019083906f181899199a1a9b1b9c1cb0b131b232b360811b8282061a835304918215610ce757919082610caa565b610caf565b9160010191610c93565b9190606460029104910191610c88565b60049193920491019138610c7d565b60089193920491019138610c70565b60109193920491019138610c61565b60209193920491019138610c4f565b604093508104915038610c36565b50634e487b7160e01b600052601160045260246000fd5b600281901b91906001600160fe1b03811603610d7f57565b610d87610d50565b565b9060028201809211610d7f57565b9060208201809211610d7f57565b50634e487b7160e01b600052603260045260246000fd5b906020918051821015610dce57010190565b610dd6610da5565b010190565b8015610de9575b6000190190565b610df1610d50565b610de2565b15610dfd57565b606460405162461bcd60e51b815260206004820152602060248201527f537472696e67733a20686578206c656e67746820696e73756666696369656e746044820152fd5b610e49610ba0565b90815115610ee3575b603060208301538151600190811015610ed6575b90607860218401536029915b808311610e8557506109bd915015610df6565b9080600f610ec292166010811015610ec9575b6f181899199a1a9b1b9c1cb0b131b232b360811b901a610eb88587610dbc565b5360041c92610ddb565b9190610e72565b610ed1610da5565b610e98565b610ede610da5565b610e66565b610eeb610da5565b610e52565b604051906060820182811067ffffffffffffffff821117610f61575b604052604082527f6768696a6b6c6d6e6f707172737475767778797a303132333435363738392b2f6040837f4142434445464748494a4b4c4d4e4f505152535455565758595a61626364656660208201520152565b610f6961083e565b610f0c565b80511561104e57610f7d610ef0565b610f99610f94610f8d8451610d89565b6003900490565b610d67565b91610fab610fa684610d97565b610bdb565b92835280815182019060208501935b828210610ffc57505050600390510680600114610feb57600214610fdc575090565b603d60f81b6000199091015290565b50613d3d60f01b6001199091015290565b9091936004906003809401938451600190603f9082828260121c16880101518553828282600c1c16880101518386015382828260061c1688010151600286015316850101519082015301939190610fba565b506109bd610b6e56fea264697066735822122048a0f3ff3f5cbde75d2e6a1445fe8587858f120215753005e032fc84b5cf626364736f6c63430008110033",
    "linkReferences": {}
  },
  "methodIdentifiers": {
    "tokenURI(uint256)": "c87b56dd"
  },
  "id": 4
}